{
  "_format": "hh-sol-artifact-1",
  "contractName": "SampleNFT",
  "sourceName": "contracts/SampleNFT.sol",
  "abi": [
    {
      "inputs": [
        {
          "internalType": "string",
          "name": "_baseURI",
          "type": "string"
        },
        {
          "internalType": "string",
          "name": "collectionURI",
          "type": "string"
        }
      ],
      "stateMutability": "nonpayable",
      "type": "constructor"
    },
    {
      "anonymous": false,
      "inputs": [
        {
          "indexed": true,
          "internalType": "address",
          "name": "owner",
          "type": "address"
        },
        {
          "indexed": true,
          "internalType": "address",
          "name": "approved",
          "type": "address"
        },
        {
          "indexed": true,
          "internalType": "uint256",
          "name": "tokenId",
          "type": "uint256"
        }
      ],
      "name": "Approval",
      "type": "event"
    },
    {
      "anonymous": false,
      "inputs": [
        {
          "indexed": true,
          "internalType": "address",
          "name": "owner",
          "type": "address"
        },
        {
          "indexed": true,
          "internalType": "address",
          "name": "operator",
          "type": "address"
        },
        {
          "indexed": false,
          "internalType": "bool",
          "name": "approved",
          "type": "bool"
        }
      ],
      "name": "ApprovalForAll",
      "type": "event"
    },
    {
      "anonymous": false,
      "inputs": [
        {
          "indexed": true,
          "internalType": "address",
          "name": "previousOwner",
          "type": "address"
        },
        {
          "indexed": true,
          "internalType": "address",
          "name": "newOwner",
          "type": "address"
        }
      ],
      "name": "OwnershipTransferred",
      "type": "event"
    },
    {
      "anonymous": false,
      "inputs": [
        {
          "indexed": true,
          "internalType": "address",
          "name": "from",
          "type": "address"
        },
        {
          "indexed": true,
          "internalType": "address",
          "name": "to",
          "type": "address"
        },
        {
          "indexed": true,
          "internalType": "uint256",
          "name": "tokenId",
          "type": "uint256"
        }
      ],
      "name": "Transfer",
      "type": "event"
    },
    {
      "inputs": [],
      "name": "PUBLIC_SALE_PRICE",
      "outputs": [
        {
          "internalType": "uint256",
          "name": "",
          "type": "uint256"
        }
      ],
      "stateMutability": "view",
      "type": "function"
    },
    {
      "inputs": [],
      "name": "WHITELIST_SALE_PRICE",
      "outputs": [
        {
          "internalType": "uint256",
          "name": "",
          "type": "uint256"
        }
      ],
      "stateMutability": "view",
      "type": "function"
    },
    {
      "inputs": [
        {
          "internalType": "address",
          "name": "to",
          "type": "address"
        },
        {
          "internalType": "uint256",
          "name": "tokenId",
          "type": "uint256"
        }
      ],
      "name": "approve",
      "outputs": [],
      "stateMutability": "nonpayable",
      "type": "function"
    },
    {
      "inputs": [
        {
          "internalType": "address",
          "name": "owner",
          "type": "address"
        }
      ],
      "name": "balanceOf",
      "outputs": [
        {
          "internalType": "uint256",
          "name": "",
          "type": "uint256"
        }
      ],
      "stateMutability": "view",
      "type": "function"
    },
    {
      "inputs": [],
      "name": "baseURI",
      "outputs": [
        {
          "internalType": "string",
          "name": "",
          "type": "string"
        }
      ],
      "stateMutability": "view",
      "type": "function"
    },
    {
      "inputs": [
        {
          "internalType": "address",
          "name": "",
          "type": "address"
        }
      ],
      "name": "claimed",
      "outputs": [
        {
          "internalType": "bool",
          "name": "",
          "type": "bool"
        }
      ],
      "stateMutability": "view",
      "type": "function"
    },
    {
      "inputs": [],
      "name": "contractURI",
      "outputs": [
        {
          "internalType": "string",
          "name": "",
          "type": "string"
        }
      ],
      "stateMutability": "view",
      "type": "function"
    },
    {
      "inputs": [
        {
          "internalType": "uint256",
          "name": "tokenId",
          "type": "uint256"
        }
      ],
      "name": "getApproved",
      "outputs": [
        {
          "internalType": "address",
          "name": "",
          "type": "address"
        }
      ],
      "stateMutability": "view",
      "type": "function"
    },
    {
      "inputs": [],
      "name": "giftMerkleRoot",
      "outputs": [
        {
          "internalType": "bytes32",
          "name": "",
          "type": "bytes32"
        }
      ],
      "stateMutability": "view",
      "type": "function"
    },
    {
      "inputs": [],
      "name": "giftMintId",
      "outputs": [
        {
          "internalType": "uint256",
          "name": "",
          "type": "uint256"
        }
      ],
      "stateMutability": "view",
      "type": "function"
    },
    {
      "inputs": [
        {
          "internalType": "address",
          "name": "owner",
          "type": "address"
        },
        {
          "internalType": "address",
          "name": "operator",
          "type": "address"
        }
      ],
      "name": "isApprovedForAll",
      "outputs": [
        {
          "internalType": "bool",
          "name": "",
          "type": "bool"
        }
      ],
      "stateMutability": "view",
      "type": "function"
    },
    {
      "inputs": [],
      "name": "maxGiftMintId",
      "outputs": [
        {
          "internalType": "uint256",
          "name": "",
          "type": "uint256"
        }
      ],
      "stateMutability": "view",
      "type": "function"
    },
    {
      "inputs": [],
      "name": "maxPublicMint",
      "outputs": [
        {
          "internalType": "uint256",
          "name": "",
          "type": "uint256"
        }
      ],
      "stateMutability": "view",
      "type": "function"
    },
    {
      "inputs": [],
      "name": "maxWhitelistId",
      "outputs": [
        {
          "internalType": "uint256",
          "name": "",
          "type": "uint256"
        }
      ],
      "stateMutability": "view",
      "type": "function"
    },
    {
      "inputs": [
        {
          "internalType": "bytes32[]",
          "name": "merkleProof",
          "type": "bytes32[]"
        }
      ],
      "name": "mintGift",
      "outputs": [],
      "stateMutability": "nonpayable",
      "type": "function"
    },
    {
      "inputs": [
        {
          "internalType": "bytes32[]",
          "name": "merkleProof",
          "type": "bytes32[]"
        }
      ],
      "name": "mintWhitelist",
      "outputs": [],
      "stateMutability": "payable",
      "type": "function"
    },
    {
      "inputs": [],
      "name": "name",
      "outputs": [
        {
          "internalType": "string",
          "name": "",
          "type": "string"
        }
      ],
      "stateMutability": "view",
      "type": "function"
    },
    {
      "inputs": [],
      "name": "owner",
      "outputs": [
        {
          "internalType": "address",
          "name": "",
          "type": "address"
        }
      ],
      "stateMutability": "view",
      "type": "function"
    },
    {
      "inputs": [
        {
          "internalType": "uint256",
          "name": "tokenId",
          "type": "uint256"
        }
      ],
      "name": "ownerOf",
      "outputs": [
        {
          "internalType": "address",
          "name": "",
          "type": "address"
        }
      ],
      "stateMutability": "view",
      "type": "function"
    },
    {
      "inputs": [
        {
          "internalType": "uint256",
          "name": "numberOfTokens",
          "type": "uint256"
        }
      ],
      "name": "publicMint",
      "outputs": [],
      "stateMutability": "payable",
      "type": "function"
    },
    {
      "inputs": [],
      "name": "publicMintId",
      "outputs": [
        {
          "internalType": "uint256",
          "name": "",
          "type": "uint256"
        }
      ],
      "stateMutability": "view",
      "type": "function"
    },
    {
      "inputs": [],
      "name": "renounceOwnership",
      "outputs": [],
      "stateMutability": "nonpayable",
      "type": "function"
    },
    {
      "inputs": [
        {
          "internalType": "address",
          "name": "from",
          "type": "address"
        },
        {
          "internalType": "address",
          "name": "to",
          "type": "address"
        },
        {
          "internalType": "uint256",
          "name": "tokenId",
          "type": "uint256"
        }
      ],
      "name": "safeTransferFrom",
      "outputs": [],
      "stateMutability": "nonpayable",
      "type": "function"
    },
    {
      "inputs": [
        {
          "internalType": "address",
          "name": "from",
          "type": "address"
        },
        {
          "internalType": "address",
          "name": "to",
          "type": "address"
        },
        {
          "internalType": "uint256",
          "name": "tokenId",
          "type": "uint256"
        },
        {
          "internalType": "bytes",
          "name": "_data",
          "type": "bytes"
        }
      ],
      "name": "safeTransferFrom",
      "outputs": [],
      "stateMutability": "nonpayable",
      "type": "function"
    },
    {
      "inputs": [
        {
          "internalType": "address",
          "name": "operator",
          "type": "address"
        },
        {
          "internalType": "bool",
          "name": "approved",
          "type": "bool"
        }
      ],
      "name": "setApprovalForAll",
      "outputs": [],
      "stateMutability": "nonpayable",
      "type": "function"
    },
    {
      "inputs": [
        {
          "internalType": "string",
          "name": "_baseURI",
          "type": "string"
        }
      ],
      "name": "setBaseURI",
      "outputs": [],
      "stateMutability": "nonpayable",
      "type": "function"
    },
    {
      "inputs": [
        {
          "internalType": "bytes32",
          "name": "merkleRoot",
          "type": "bytes32"
        }
      ],
      "name": "setGiftMerkleRoot",
      "outputs": [],
      "stateMutability": "nonpayable",
      "type": "function"
    },
    {
      "inputs": [
        {
          "internalType": "bytes32",
          "name": "merkleRoot",
          "type": "bytes32"
        }
      ],
      "name": "setWhitelistMerkleRoot",
      "outputs": [],
      "stateMutability": "nonpayable",
      "type": "function"
    },
    {
      "inputs": [
        {
          "internalType": "bytes4",
          "name": "interfaceId",
          "type": "bytes4"
        }
      ],
      "name": "supportsInterface",
      "outputs": [
        {
          "internalType": "bool",
          "name": "",
          "type": "bool"
        }
      ],
      "stateMutability": "view",
      "type": "function"
    },
    {
      "inputs": [],
      "name": "symbol",
      "outputs": [
        {
          "internalType": "string",
          "name": "",
          "type": "string"
        }
      ],
      "stateMutability": "view",
      "type": "function"
    },
    {
      "inputs": [
        {
          "internalType": "uint256",
          "name": "tokenId",
          "type": "uint256"
        }
      ],
      "name": "tokenURI",
      "outputs": [
        {
          "internalType": "string",
          "name": "",
          "type": "string"
        }
      ],
      "stateMutability": "view",
      "type": "function"
    },
    {
      "inputs": [
        {
          "internalType": "address",
          "name": "from",
          "type": "address"
        },
        {
          "internalType": "address",
          "name": "to",
          "type": "address"
        },
        {
          "internalType": "uint256",
          "name": "tokenId",
          "type": "uint256"
        }
      ],
      "name": "transferFrom",
      "outputs": [],
      "stateMutability": "nonpayable",
      "type": "function"
    },
    {
      "inputs": [
        {
          "internalType": "address",
          "name": "newOwner",
          "type": "address"
        }
      ],
      "name": "transferOwnership",
      "outputs": [],
      "stateMutability": "nonpayable",
      "type": "function"
    },
    {
      "inputs": [],
      "name": "whitelistId",
      "outputs": [
        {
          "internalType": "uint256",
          "name": "",
          "type": "uint256"
        }
      ],
      "stateMutability": "view",
      "type": "function"
    },
    {
      "inputs": [],
      "name": "whitelistMerkleRoot",
      "outputs": [
        {
          "internalType": "bytes32",
          "name": "",
          "type": "bytes32"
        }
      ],
      "stateMutability": "view",
      "type": "function"
    },
    {
      "inputs": [],
      "name": "withdraw",
      "outputs": [],
      "stateMutability": "nonpayable",
      "type": "function"
    },
    {
      "inputs": [
        {
          "internalType": "contract IERC20",
          "name": "token",
          "type": "address"
        }
      ],
      "name": "withdrawTokens",
      "outputs": [],
      "stateMutability": "nonpayable",
      "type": "function"
    }
  ],
  "bytecode": "0x60e060405260196080908152506001600b556103e860a0908152506006600c5561177060c0908152506103e9600d553480156200003b57600080fd5b5060405162004ab638038062004ab68339818101604052810190620000619190620004c3565b6040518060400160405280600a81526020017f53616d706c65204e4654000000000000000000000000000000000000000000008152506040518060400160405280600381526020017f4e465400000000000000000000000000000000000000000000000000000000008152508160009080519060200190620000e5929190620003a1565b508060019080519060200190620000fe929190620003a1565b50505062000121620001156200015360201b60201c565b6200015b60201b60201c565b60016008819055506200013a826200022160201b60201c565b6200014b81620002cc60201b60201c565b5050620006dc565b600033905090565b6000600760009054906101000a900473ffffffffffffffffffffffffffffffffffffffff16905081600760006101000a81548173ffffffffffffffffffffffffffffffffffffffff021916908373ffffffffffffffffffffffffffffffffffffffff1602179055508173ffffffffffffffffffffffffffffffffffffffff168173ffffffffffffffffffffffffffffffffffffffff167f8be0079c531659141344cd1fd0a4f28419497f9722a3daafe3b4186f6b6457e060405160405180910390a35050565b620002316200015360201b60201c565b73ffffffffffffffffffffffffffffffffffffffff16620002576200037760201b60201c565b73ffffffffffffffffffffffffffffffffffffffff1614620002b0576040517f08c379a0000000000000000000000000000000000000000000000000000000008152600401620002a79062000578565b60405180910390fd5b80600a9080519060200190620002c8929190620003a1565b5050565b620002dc6200015360201b60201c565b73ffffffffffffffffffffffffffffffffffffffff16620003026200037760201b60201c565b73ffffffffffffffffffffffffffffffffffffffff16146200035b576040517f08c379a0000000000000000000000000000000000000000000000000000000008152600401620003529062000578565b60405180910390fd5b806009908051906020019062000373929190620003a1565b5050565b6000600760009054906101000a900473ffffffffffffffffffffffffffffffffffffffff16905090565b828054620003af9062000648565b90600052602060002090601f016020900481019282620003d357600085556200041f565b82601f10620003ee57805160ff19168380011785556200041f565b828001600101855582156200041f579182015b828111156200041e57825182559160200191906001019062000401565b5b5090506200042e919062000432565b5090565b5b808211156200044d57600081600090555060010162000433565b5090565b6000620004686200046284620005ce565b6200059a565b9050828152602081018484840111156200048157600080fd5b6200048e84828562000612565b509392505050565b600082601f830112620004a857600080fd5b8151620004ba84826020860162000451565b91505092915050565b60008060408385031215620004d757600080fd5b600083015167ffffffffffffffff811115620004f257600080fd5b620005008582860162000496565b925050602083015167ffffffffffffffff8111156200051e57600080fd5b6200052c8582860162000496565b9150509250929050565b60006200054560208362000601565b91507f4f776e61626c653a2063616c6c6572206973206e6f7420746865206f776e65726000830152602082019050919050565b60006020820190508181036000830152620005938162000536565b9050919050565b6000604051905081810181811067ffffffffffffffff82111715620005c457620005c3620006ad565b5b8060405250919050565b600067ffffffffffffffff821115620005ec57620005eb620006ad565b5b601f19601f8301169050602081019050919050565b600082825260208201905092915050565b60005b838110156200063257808201518184015260208101905062000615565b8381111562000642576000848401525b50505050565b600060028204905060018216806200066157607f821691505b602082108114156200067857620006776200067e565b5b50919050565b7f4e487b7100000000000000000000000000000000000000000000000000000000600052602260045260246000fd5b7f4e487b7100000000000000000000000000000000000000000000000000000000600052604160045260246000fd5b60805160a05160c0516143956200072160003960008181610c530152611ae80152600081816110340152611b0c015260008181611664015261178c01526143956000f3fe60806040526004361061021a5760003560e01c8063715018a611610123578063bc912e1a116100ab578063d30068a41161006f578063d30068a414610791578063e68be24a146107bc578063e8a3d485146107e7578063e985e9c514610812578063f2fde38b1461084f5761021a565b8063bc912e1a14610698578063bd32fb66146106c3578063c87b56dd146106ec578063c884ef8314610729578063cabadaa0146107665761021a565b806395d89b41116100f257806395d89b41146105c5578063a19829c0146105f0578063a22cb4651461061b578063aa98e0c614610644578063b88d4fde1461066f5761021a565b8063715018a61461052f57806380e95ae114610546578063811dab35146105715780638da5cb5b1461059a5761021a565b80633ba46d46116101a657806349df728c1161017557806349df728c1461043857806355f804b3146104615780636352211e1461048a5780636c0360eb146104c757806370a08231146104f25761021a565b80633ba46d46146103b35780633ccfd60b146103dc57806342842e0e146103f357806344d843811461041c5761021a565b8063095ea7b3116101ed578063095ea7b3146102ef5780630fab61971461031857806323b872dd146103435780632db115441461036c57806330478b67146103885761021a565b806301ffc9a71461021f57806306fdde031461025c57806307e89ec014610287578063081812fc146102b2575b600080fd5b34801561022b57600080fd5b5061024660048036038101906102419190612f84565b610878565b6040516102539190613b1e565b60405180910390f35b34801561026857600080fd5b5061027161095a565b60405161027e9190613b54565b60405180910390f35b34801561029357600080fd5b5061029c6109ec565b6040516102a99190613e36565b60405180910390f35b3480156102be57600080fd5b506102d960048036038101906102d49190613040565b6109f7565b6040516102e69190613a8e565b60405180910390f35b3480156102fb57600080fd5b5061031660048036038101906103119190612eb1565b610a7c565b005b34801561032457600080fd5b5061032d610b94565b60405161033a9190613e36565b60405180910390f35b34801561034f57600080fd5b5061036a60048036038101906103659190612dab565b610b9a565b005b61038660048036038101906103819190613040565b610bfa565b005b34801561039457600080fd5b5061039d610d60565b6040516103aa9190613e36565b60405180910390f35b3480156103bf57600080fd5b506103da60048036038101906103d59190612f5b565b610d66565b005b3480156103e857600080fd5b506103f1610dec565b005b3480156103ff57600080fd5b5061041a60048036038101906104159190612dab565b610eb7565b005b61043660048036038101906104319190612eed565b610ed7565b005b34801561044457600080fd5b5061045f600480360381019061045a9190612fd6565b6111b1565b005b34801561046d57600080fd5b5061048860048036038101906104839190612fff565b61134c565b005b34801561049657600080fd5b506104b160048036038101906104ac9190613040565b6113e2565b6040516104be9190613a8e565b60405180910390f35b3480156104d357600080fd5b506104dc611494565b6040516104e99190613b54565b60405180910390f35b3480156104fe57600080fd5b5061051960048036038101906105149190612d46565b611522565b6040516105269190613e36565b60405180910390f35b34801561053b57600080fd5b506105446115da565b005b34801561055257600080fd5b5061055b611662565b6040516105689190613e36565b60405180910390f35b34801561057d57600080fd5b5061059860048036038101906105939190612eed565b611686565b005b3480156105a657600080fd5b506105af611879565b6040516105bc9190613a8e565b60405180910390f35b3480156105d157600080fd5b506105da6118a3565b6040516105e79190613b54565b60405180910390f35b3480156105fc57600080fd5b50610605611935565b6040516106129190613b39565b60405180910390f35b34801561062757600080fd5b50610642600480360381019061063d9190612e75565b61193b565b005b34801561065057600080fd5b50610659611951565b6040516106669190613b39565b60405180910390f35b34801561067b57600080fd5b5061069660048036038101906106919190612dfa565b611957565b005b3480156106a457600080fd5b506106ad6119b9565b6040516106ba9190613e36565b60405180910390f35b3480156106cf57600080fd5b506106ea60048036038101906106e59190612f5b565b6119c4565b005b3480156106f857600080fd5b50610713600480360381019061070e9190613040565b611a4a565b6040516107209190613b54565b60405180910390f35b34801561073557600080fd5b50610750600480360381019061074b9190612d46565b611ac6565b60405161075d9190613b1e565b60405180910390f35b34801561077257600080fd5b5061077b611ae6565b6040516107889190613e36565b60405180910390f35b34801561079d57600080fd5b506107a6611b0a565b6040516107b39190613e36565b60405180910390f35b3480156107c857600080fd5b506107d1611b2e565b6040516107de9190613e36565b60405180910390f35b3480156107f357600080fd5b506107fc611b34565b6040516108099190613b54565b60405180910390f35b34801561081e57600080fd5b5061083960048036038101906108349190612d6f565b611bc6565b6040516108469190613b1e565b60405180910390f35b34801561085b57600080fd5b5061087660048036038101906108719190612d46565b611c5a565b005b60007f80ac58cd000000000000000000000000000000000000000000000000000000007bffffffffffffffffffffffffffffffffffffffffffffffffffffffff1916827bffffffffffffffffffffffffffffffffffffffffffffffffffffffff1916148061094357507f5b5e139f000000000000000000000000000000000000000000000000000000007bffffffffffffffffffffffffffffffffffffffffffffffffffffffff1916827bffffffffffffffffffffffffffffffffffffffffffffffffffffffff1916145b80610953575061095282611d52565b5b9050919050565b60606000805461096990614121565b80601f016020809104026020016040519081016040528092919081815260200182805461099590614121565b80156109e25780601f106109b7576101008083540402835291602001916109e2565b820191906000526020600020905b8154815290600101906020018083116109c557829003601f168201915b5050505050905090565b66470de4df82000081565b6000610a0282611dbc565b610a41576040517f08c379a0000000000000000000000000000000000000000000000000000000008152600401610a3890613d56565b60405180910390fd5b6004600083815260200190815260200160002060009054906101000a900473ffffffffffffffffffffffffffffffffffffffff169050919050565b6000610a87826113e2565b90508073ffffffffffffffffffffffffffffffffffffffff168373ffffffffffffffffffffffffffffffffffffffff161415610af8576040517f08c379a0000000000000000000000000000000000000000000000000000000008152600401610aef90613db6565b60405180910390fd5b8073ffffffffffffffffffffffffffffffffffffffff16610b17611e28565b73ffffffffffffffffffffffffffffffffffffffff161480610b465750610b4581610b40611e28565b611bc6565b5b610b85576040517f08c379a0000000000000000000000000000000000000000000000000000000008152600401610b7c90613cb6565b60405180910390fd5b610b8f8383611e30565b505050565b600d5481565b610bab610ba5611e28565b82611ee9565b610bea576040517f08c379a0000000000000000000000000000000000000000000000000000000008152600401610be190613dd6565b60405180910390fd5b610bf5838383611fc7565b505050565b66470de4df82000081348183610c109190613fc1565b14610c50576040517f08c379a0000000000000000000000000000000000000000000000000000000008152600401610c4790613df6565b60405180910390fd5b827f000000000000000000000000000000000000000000000000000000000000000081600d54610c809190613f3a565b1115610cc1576040517f08c379a0000000000000000000000000000000000000000000000000000000008152600401610cb890613c16565b60405180910390fd5b60026008541415610d07576040517f08c379a0000000000000000000000000000000000000000000000000000000008152600401610cfe90613e16565b60405180910390fd5b600260088190555060005b84811015610d5157610d2633600d54612223565b600d6000815480929190610d3990614153565b91905055508080610d4990614153565b915050610d12565b50600160088190555050505050565b600b5481565b610d6e611e28565b73ffffffffffffffffffffffffffffffffffffffff16610d8c611879565b73ffffffffffffffffffffffffffffffffffffffff1614610de2576040517f08c379a0000000000000000000000000000000000000000000000000000000008152600401610dd990613d76565b60405180910390fd5b80600e8190555050565b610df4611e28565b73ffffffffffffffffffffffffffffffffffffffff16610e12611879565b73ffffffffffffffffffffffffffffffffffffffff1614610e68576040517f08c379a0000000000000000000000000000000000000000000000000000000008152600401610e5f90613d76565b60405180910390fd5b60004790503373ffffffffffffffffffffffffffffffffffffffff166108fc829081150290604051600060405180830381858888f19350505050158015610eb3573d6000803e3d6000fd5b5050565b610ed283838360405180602001604052806000815250611957565b505050565b8181600f54610f4e838380806020026020016040519081016040528093929190818152602001838360200280828437600081840152601f19601f820116905080830192505050505050508233604051602001610f339190613a18565b604051602081830303815290604052805190602001206123f1565b610f8d576040517f08c379a0000000000000000000000000000000000000000000000000000000008152600401610f8490613c56565b60405180910390fd5b662386f26fc100006001348183610fa49190613fc1565b14610fe4576040517f08c379a0000000000000000000000000000000000000000000000000000000008152600401610fdb90613df6565b60405180910390fd5b6002600854141561102a576040517f08c379a000000000000000000000000000000000000000000000000000000000815260040161102190613e16565b60405180910390fd5b60026008819055507f0000000000000000000000000000000000000000000000000000000000000000600c541115611097576040517f08c379a000000000000000000000000000000000000000000000000000000000815260040161108e90613c76565b60405180910390fd5b601060003373ffffffffffffffffffffffffffffffffffffffff1673ffffffffffffffffffffffffffffffffffffffff16815260200190815260200160002060009054906101000a900460ff1615611124576040517f08c379a000000000000000000000000000000000000000000000000000000000815260040161111b90613c96565b60405180910390fd5b61113033600c54612223565b600c600081548092919061114390614153565b91905055506001601060003373ffffffffffffffffffffffffffffffffffffffff1673ffffffffffffffffffffffffffffffffffffffff16815260200190815260200160002060006101000a81548160ff021916908315150217905550600160088190555050505050505050565b6111b9611e28565b73ffffffffffffffffffffffffffffffffffffffff166111d7611879565b73ffffffffffffffffffffffffffffffffffffffff161461122d576040517f08c379a000000000000000000000000000000000000000000000000000000000815260040161122490613d76565b60405180910390fd5b60008173ffffffffffffffffffffffffffffffffffffffff166370a08231306040518263ffffffff1660e01b81526004016112689190613a8e565b60206040518083038186803b15801561128057600080fd5b505afa158015611294573d6000803e3d6000fd5b505050506040513d601f19601f820116820180604052508101906112b89190613069565b90508173ffffffffffffffffffffffffffffffffffffffff1663a9059cbb33836040518363ffffffff1660e01b81526004016112f5929190613af5565b602060405180830381600087803b15801561130f57600080fd5b505af1158015611323573d6000803e3d6000fd5b505050506040513d601f19601f820116820180604052508101906113479190612f32565b505050565b611354611e28565b73ffffffffffffffffffffffffffffffffffffffff16611372611879565b73ffffffffffffffffffffffffffffffffffffffff16146113c8576040517f08c379a00000000000000000000000000000000000000000000000000000000081526004016113bf90613d76565b60405180910390fd5b80600a90805190602001906113de929190612acc565b5050565b6000806002600084815260200190815260200160002060009054906101000a900473ffffffffffffffffffffffffffffffffffffffff169050600073ffffffffffffffffffffffffffffffffffffffff168173ffffffffffffffffffffffffffffffffffffffff16141561148b576040517f08c379a000000000000000000000000000000000000000000000000000000000815260040161148290613cf6565b60405180910390fd5b80915050919050565b600a80546114a190614121565b80601f01602080910402602001604051908101604052809291908181526020018280546114cd90614121565b801561151a5780601f106114ef5761010080835404028352916020019161151a565b820191906000526020600020905b8154815290600101906020018083116114fd57829003601f168201915b505050505081565b60008073ffffffffffffffffffffffffffffffffffffffff168273ffffffffffffffffffffffffffffffffffffffff161415611593576040517f08c379a000000000000000000000000000000000000000000000000000000000815260040161158a90613cd6565b60405180910390fd5b600360008373ffffffffffffffffffffffffffffffffffffffff1673ffffffffffffffffffffffffffffffffffffffff168152602001908152602001600020549050919050565b6115e2611e28565b73ffffffffffffffffffffffffffffffffffffffff16611600611879565b73ffffffffffffffffffffffffffffffffffffffff1614611656576040517f08c379a000000000000000000000000000000000000000000000000000000000815260040161164d90613d76565b60405180910390fd5b6116606000612408565b565b7f000000000000000000000000000000000000000000000000000000000000000081565b8181600e546116fd838380806020026020016040519081016040528093929190818152602001838360200280828437600081840152601f19601f8201169050808301925050505050505082336040516020016116e29190613a18565b604051602081830303815290604052805190602001206123f1565b61173c576040517f08c379a000000000000000000000000000000000000000000000000000000000815260040161173390613c56565b60405180910390fd5b60026008541415611782576040517f08c379a000000000000000000000000000000000000000000000000000000000815260040161177990613e16565b60405180910390fd5b60026008819055507f0000000000000000000000000000000000000000000000000000000000000000600b5411156117b957600080fd5b601060003373ffffffffffffffffffffffffffffffffffffffff1673ffffffffffffffffffffffffffffffffffffffff16815260200190815260200160002060009054906101000a900460ff1615611846576040517f08c379a000000000000000000000000000000000000000000000000000000000815260040161183d90613c96565b60405180910390fd5b61185233600b54612223565b600b600081548092919061186590614153565b919050555060016008819055505050505050565b6000600760009054906101000a900473ffffffffffffffffffffffffffffffffffffffff16905090565b6060600180546118b290614121565b80601f01602080910402602001604051908101604052809291908181526020018280546118de90614121565b801561192b5780601f106119005761010080835404028352916020019161192b565b820191906000526020600020905b81548152906001019060200180831161190e57829003601f168201915b5050505050905090565b600e5481565b61194d611946611e28565b83836124ce565b5050565b600f5481565b611968611962611e28565b83611ee9565b6119a7576040517f08c379a000000000000000000000000000000000000000000000000000000000815260040161199e90613dd6565b60405180910390fd5b6119b38484848461263b565b50505050565b662386f26fc1000081565b6119cc611e28565b73ffffffffffffffffffffffffffffffffffffffff166119ea611879565b73ffffffffffffffffffffffffffffffffffffffff1614611a40576040517f08c379a0000000000000000000000000000000000000000000000000000000008152600401611a3790613d76565b60405180910390fd5b80600f8190555050565b6060611a5582611dbc565b611a94576040517f08c379a0000000000000000000000000000000000000000000000000000000008152600401611a8b90613d36565b60405180910390fd5b600a611a9f83612697565b604051602001611ab0929190613a5f565b6040516020818303038152906040529050919050565b60106020528060005260406000206000915054906101000a900460ff1681565b7f000000000000000000000000000000000000000000000000000000000000000081565b7f000000000000000000000000000000000000000000000000000000000000000081565b600c5481565b606060098054611b4390614121565b80601f0160208091040260200160405190810160405280929190818152602001828054611b6f90614121565b8015611bbc5780601f10611b9157610100808354040283529160200191611bbc565b820191906000526020600020905b815481529060010190602001808311611b9f57829003601f168201915b5050505050905090565b6000600560008473ffffffffffffffffffffffffffffffffffffffff1673ffffffffffffffffffffffffffffffffffffffff16815260200190815260200160002060008373ffffffffffffffffffffffffffffffffffffffff1673ffffffffffffffffffffffffffffffffffffffff16815260200190815260200160002060009054906101000a900460ff16905092915050565b611c62611e28565b73ffffffffffffffffffffffffffffffffffffffff16611c80611879565b73ffffffffffffffffffffffffffffffffffffffff1614611cd6576040517f08c379a0000000000000000000000000000000000000000000000000000000008152600401611ccd90613d76565b60405180910390fd5b600073ffffffffffffffffffffffffffffffffffffffff168173ffffffffffffffffffffffffffffffffffffffff161415611d46576040517f08c379a0000000000000000000000000000000000000000000000000000000008152600401611d3d90613b96565b60405180910390fd5b611d4f81612408565b50565b60007f01ffc9a7000000000000000000000000000000000000000000000000000000007bffffffffffffffffffffffffffffffffffffffffffffffffffffffff1916827bffffffffffffffffffffffffffffffffffffffffffffffffffffffff1916149050919050565b60008073ffffffffffffffffffffffffffffffffffffffff166002600084815260200190815260200160002060009054906101000a900473ffffffffffffffffffffffffffffffffffffffff1673ffffffffffffffffffffffffffffffffffffffff1614159050919050565b600033905090565b816004600083815260200190815260200160002060006101000a81548173ffffffffffffffffffffffffffffffffffffffff021916908373ffffffffffffffffffffffffffffffffffffffff160217905550808273ffffffffffffffffffffffffffffffffffffffff16611ea3836113e2565b73ffffffffffffffffffffffffffffffffffffffff167f8c5be1e5ebec7d5bd14f71427d1e84f3dd0314c0f7b2291e5b200ac8c7c3b92560405160405180910390a45050565b6000611ef482611dbc565b611f33576040517f08c379a0000000000000000000000000000000000000000000000000000000008152600401611f2a90613c36565b60405180910390fd5b6000611f3e836113e2565b90508073ffffffffffffffffffffffffffffffffffffffff168473ffffffffffffffffffffffffffffffffffffffff161480611fad57508373ffffffffffffffffffffffffffffffffffffffff16611f95846109f7565b73ffffffffffffffffffffffffffffffffffffffff16145b80611fbe5750611fbd8185611bc6565b5b91505092915050565b8273ffffffffffffffffffffffffffffffffffffffff16611fe7826113e2565b73ffffffffffffffffffffffffffffffffffffffff161461203d576040517f08c379a000000000000000000000000000000000000000000000000000000000815260040161203490613d96565b60405180910390fd5b600073ffffffffffffffffffffffffffffffffffffffff168273ffffffffffffffffffffffffffffffffffffffff1614156120ad576040517f08c379a00000000000000000000000000000000000000000000000000000000081526004016120a490613bd6565b60405180910390fd5b6120b8838383612844565b6120c3600082611e30565b6001600360008573ffffffffffffffffffffffffffffffffffffffff1673ffffffffffffffffffffffffffffffffffffffff1681526020019081526020016000206000828254612113919061401b565b925050819055506001600360008473ffffffffffffffffffffffffffffffffffffffff1673ffffffffffffffffffffffffffffffffffffffff168152602001908152602001600020600082825461216a9190613f3a565b92505081905550816002600083815260200190815260200160002060006101000a81548173ffffffffffffffffffffffffffffffffffffffff021916908373ffffffffffffffffffffffffffffffffffffffff160217905550808273ffffffffffffffffffffffffffffffffffffffff168473ffffffffffffffffffffffffffffffffffffffff167fddf252ad1be2c89b69c2b068fc378daa952ba7f163c4a11628f55a4df523b3ef60405160405180910390a4505050565b600073ffffffffffffffffffffffffffffffffffffffff168273ffffffffffffffffffffffffffffffffffffffff161415612293576040517f08c379a000000000000000000000000000000000000000000000000000000000815260040161228a90613d16565b60405180910390fd5b61229c81611dbc565b156122dc576040517f08c379a00000000000000000000000000000000000000000000000000000000081526004016122d390613bb6565b60405180910390fd5b6122e860008383612844565b6001600360008473ffffffffffffffffffffffffffffffffffffffff1673ffffffffffffffffffffffffffffffffffffffff16815260200190815260200160002060008282546123389190613f3a565b92505081905550816002600083815260200190815260200160002060006101000a81548173ffffffffffffffffffffffffffffffffffffffff021916908373ffffffffffffffffffffffffffffffffffffffff160217905550808273ffffffffffffffffffffffffffffffffffffffff16600073ffffffffffffffffffffffffffffffffffffffff167fddf252ad1be2c89b69c2b068fc378daa952ba7f163c4a11628f55a4df523b3ef60405160405180910390a45050565b6000826123fe8584612849565b1490509392505050565b6000600760009054906101000a900473ffffffffffffffffffffffffffffffffffffffff16905081600760006101000a81548173ffffffffffffffffffffffffffffffffffffffff021916908373ffffffffffffffffffffffffffffffffffffffff1602179055508173ffffffffffffffffffffffffffffffffffffffff168173ffffffffffffffffffffffffffffffffffffffff167f8be0079c531659141344cd1fd0a4f28419497f9722a3daafe3b4186f6b6457e060405160405180910390a35050565b8173ffffffffffffffffffffffffffffffffffffffff168373ffffffffffffffffffffffffffffffffffffffff16141561253d576040517f08c379a000000000000000000000000000000000000000000000000000000000815260040161253490613bf6565b60405180910390fd5b80600560008573ffffffffffffffffffffffffffffffffffffffff1673ffffffffffffffffffffffffffffffffffffffff16815260200190815260200160002060008473ffffffffffffffffffffffffffffffffffffffff1673ffffffffffffffffffffffffffffffffffffffff16815260200190815260200160002060006101000a81548160ff0219169083151502179055508173ffffffffffffffffffffffffffffffffffffffff168373ffffffffffffffffffffffffffffffffffffffff167f17307eab39ab6107e8899845ad3d59bd9653f200f220920489ca2b5937696c318360405161262e9190613b1e565b60405180910390a3505050565b612646848484611fc7565b61265284848484612922565b612691576040517f08c379a000000000000000000000000000000000000000000000000000000000815260040161268890613b76565b60405180910390fd5b50505050565b606060008214156126df576040518060400160405280600181526020017f3000000000000000000000000000000000000000000000000000000000000000815250905061283f565b600082905060005b600082146127115780806126fa90614153565b915050600a8261270a9190613f90565b91506126e7565b60008167ffffffffffffffff811115612753577f4e487b7100000000000000000000000000000000000000000000000000000000600052604160045260246000fd5b6040519080825280601f01601f1916602001820160405280156127855781602001600182028036833780820191505090505b5090505b600085146128385760018261279e919061401b565b9150600a856127ad91906141ca565b60306127b99190613f3a565b60f81b8183815181106127f5577f4e487b7100000000000000000000000000000000000000000000000000000000600052603260045260246000fd5b60200101907effffffffffffffffffffffffffffffffffffffffffffffffffffffffffffff1916908160001a905350600a856128319190613f90565b9450612789565b8093505050505b919050565b505050565b60008082905060005b8451811015612917576000858281518110612896577f4e487b7100000000000000000000000000000000000000000000000000000000600052603260045260246000fd5b602002602001015190508083116128d75782816040516020016128ba929190613a33565b604051602081830303815290604052805190602001209250612903565b80836040516020016128ea929190613a33565b6040516020818303038152906040528051906020012092505b50808061290f90614153565b915050612852565b508091505092915050565b60006129438473ffffffffffffffffffffffffffffffffffffffff16612ab9565b15612aac578373ffffffffffffffffffffffffffffffffffffffff1663150b7a0261296c611e28565b8786866040518563ffffffff1660e01b815260040161298e9493929190613aa9565b602060405180830381600087803b1580156129a857600080fd5b505af19250505080156129d957506040513d601f19601f820116820180604052508101906129d69190612fad565b60015b612a5c573d8060008114612a09576040519150601f19603f3d011682016040523d82523d6000602084013e612a0e565b606091505b50600081511415612a54576040517f08c379a0000000000000000000000000000000000000000000000000000000008152600401612a4b90613b76565b60405180910390fd5b805181602001fd5b63150b7a0260e01b7bffffffffffffffffffffffffffffffffffffffffffffffffffffffff1916817bffffffffffffffffffffffffffffffffffffffffffffffffffffffff191614915050612ab1565b600190505b949350505050565b600080823b905060008111915050919050565b828054612ad890614121565b90600052602060002090601f016020900481019282612afa5760008555612b41565b82601f10612b1357805160ff1916838001178555612b41565b82800160010185558215612b41579182015b82811115612b40578251825591602001919060010190612b25565b5b509050612b4e9190612b52565b5090565b5b80821115612b6b576000816000905550600101612b53565b5090565b6000612b82612b7d84613e82565b613e51565b905082815260208101848484011115612b9a57600080fd5b612ba58482856140df565b509392505050565b6000612bc0612bbb84613eb2565b613e51565b905082815260208101848484011115612bd857600080fd5b612be38482856140df565b509392505050565b600081359050612bfa816142d5565b92915050565b60008083601f840112612c1257600080fd5b8235905067ffffffffffffffff811115612c2b57600080fd5b602083019150836020820283011115612c4357600080fd5b9250929050565b600081359050612c59816142ec565b92915050565b600081519050612c6e816142ec565b92915050565b600081359050612c8381614303565b92915050565b600081359050612c988161431a565b92915050565b600081519050612cad8161431a565b92915050565b600082601f830112612cc457600080fd5b8135612cd4848260208601612b6f565b91505092915050565b600081359050612cec81614331565b92915050565b600082601f830112612d0357600080fd5b8135612d13848260208601612bad565b91505092915050565b600081359050612d2b81614348565b92915050565b600081519050612d4081614348565b92915050565b600060208284031215612d5857600080fd5b6000612d6684828501612beb565b91505092915050565b60008060408385031215612d8257600080fd5b6000612d9085828601612beb565b9250506020612da185828601612beb565b9150509250929050565b600080600060608486031215612dc057600080fd5b6000612dce86828701612beb565b9350506020612ddf86828701612beb565b9250506040612df086828701612d1c565b9150509250925092565b60008060008060808587031215612e1057600080fd5b6000612e1e87828801612beb565b9450506020612e2f87828801612beb565b9350506040612e4087828801612d1c565b925050606085013567ffffffffffffffff811115612e5d57600080fd5b612e6987828801612cb3565b91505092959194509250565b60008060408385031215612e8857600080fd5b6000612e9685828601612beb565b9250506020612ea785828601612c4a565b9150509250929050565b60008060408385031215612ec457600080fd5b6000612ed285828601612beb565b9250506020612ee385828601612d1c565b9150509250929050565b60008060208385031215612f0057600080fd5b600083013567ffffffffffffffff811115612f1a57600080fd5b612f2685828601612c00565b92509250509250929050565b600060208284031215612f4457600080fd5b6000612f5284828501612c5f565b91505092915050565b600060208284031215612f6d57600080fd5b6000612f7b84828501612c74565b91505092915050565b600060208284031215612f9657600080fd5b6000612fa484828501612c89565b91505092915050565b600060208284031215612fbf57600080fd5b6000612fcd84828501612c9e565b91505092915050565b600060208284031215612fe857600080fd5b6000612ff684828501612cdd565b91505092915050565b60006020828403121561301157600080fd5b600082013567ffffffffffffffff81111561302b57600080fd5b61303784828501612cf2565b91505092915050565b60006020828403121561305257600080fd5b600061306084828501612d1c565b91505092915050565b60006020828403121561307b57600080fd5b600061308984828501612d31565b91505092915050565b61309b8161404f565b82525050565b6130b26130ad8261404f565b61419c565b82525050565b6130c181614061565b82525050565b6130d08161406d565b82525050565b6130e76130e28261406d565b6141ae565b82525050565b60006130f882613ef7565b6131028185613f0d565b93506131128185602086016140ee565b61311b816142b7565b840191505092915050565b600061313182613f02565b61313b8185613f1e565b935061314b8185602086016140ee565b613154816142b7565b840191505092915050565b600061316a82613f02565b6131748185613f2f565b93506131848185602086016140ee565b80840191505092915050565b6000815461319d81614121565b6131a78186613f2f565b945060018216600081146131c257600181146131d357613206565b60ff19831686528186019350613206565b6131dc85613ee2565b60005b838110156131fe578154818901526001820191506020810190506131df565b838801955050505b50505092915050565b600061321c603283613f1e565b91507f4552433732313a207472616e7366657220746f206e6f6e20455243373231526560008301527f63656976657220696d706c656d656e74657200000000000000000000000000006020830152604082019050919050565b6000613282602683613f1e565b91507f4f776e61626c653a206e6577206f776e657220697320746865207a65726f206160008301527f64647265737300000000000000000000000000000000000000000000000000006020830152604082019050919050565b60006132e8601c83613f1e565b91507f4552433732313a20746f6b656e20616c7265616479206d696e746564000000006000830152602082019050919050565b6000613328602483613f1e565b91507f4552433732313a207472616e7366657220746f20746865207a65726f2061646460008301527f72657373000000000000000000000000000000000000000000000000000000006020830152604082019050919050565b600061338e601983613f1e565b91507f4552433732313a20617070726f766520746f2063616c6c6572000000000000006000830152602082019050919050565b60006133ce602383613f1e565b91507f4e6f7420656e6f75676820746f6b656e732072656d61696e696e6720746f206d60008301527f696e7400000000000000000000000000000000000000000000000000000000006020830152604082019050919050565b6000613434602c83613f1e565b91507f4552433732313a206f70657261746f7220717565727920666f72206e6f6e657860008301527f697374656e7420746f6b656e00000000000000000000000000000000000000006020830152604082019050919050565b600061349a601e83613f1e565b91507f4164647265737320646f6573206e6f7420657869737420696e206c69737400006000830152602082019050919050565b60006134da602883613f1e565b91507f6d696e74656420746865206d6178696d756d2023206f662077686974656c697360008301527f7420746f6b656e730000000000000000000000000000000000000000000000006020830152604082019050919050565b6000613540602583613f1e565b91507f4e465420697320616c726561647920636c61696d65642062792074686973207760008301527f616c6c65740000000000000000000000000000000000000000000000000000006020830152604082019050919050565b60006135a6603883613f1e565b91507f4552433732313a20617070726f76652063616c6c6572206973206e6f74206f7760008301527f6e6572206e6f7220617070726f76656420666f7220616c6c00000000000000006020830152604082019050919050565b600061360c602a83613f1e565b91507f4552433732313a2062616c616e636520717565727920666f7220746865207a6560008301527f726f2061646472657373000000000000000000000000000000000000000000006020830152604082019050919050565b6000613672602983613f1e565b91507f4552433732313a206f776e657220717565727920666f72206e6f6e657869737460008301527f656e7420746f6b656e00000000000000000000000000000000000000000000006020830152604082019050919050565b60006136d8602083613f1e565b91507f4552433732313a206d696e7420746f20746865207a65726f20616464726573736000830152602082019050919050565b6000613718602b83613f1e565b91507f4552433732314d657461646174613a20717565727920666f72206e6f6e65786960008301527f7374656e7420746f6b656e0000000000000000000000000000000000000000006020830152604082019050919050565b600061377e602c83613f1e565b91507f4552433732313a20617070726f76656420717565727920666f72206e6f6e657860008301527f697374656e7420746f6b656e00000000000000000000000000000000000000006020830152604082019050919050565b60006137e4600583613f2f565b91507f2e6a736f6e0000000000000000000000000000000000000000000000000000006000830152600582019050919050565b6000613824602083613f1e565b91507f4f776e61626c653a2063616c6c6572206973206e6f7420746865206f776e65726000830152602082019050919050565b6000613864602983613f1e565b91507f4552433732313a207472616e73666572206f6620746f6b656e2074686174206960008301527f73206e6f74206f776e00000000000000000000000000000000000000000000006020830152604082019050919050565b60006138ca602183613f1e565b91507f4552433732313a20617070726f76616c20746f2063757272656e74206f776e6560008301527f72000000000000000000000000000000000000000000000000000000000000006020830152604082019050919050565b6000613930603183613f1e565b91507f4552433732313a207472616e736665722063616c6c6572206973206e6f74206f60008301527f776e6572206e6f7220617070726f7665640000000000000000000000000000006020830152604082019050919050565b6000613996601883613f1e565b91507f496e636f7272656374204554482076616c75652073656e7400000000000000006000830152602082019050919050565b60006139d6601f83613f1e565b91507f5265656e7472616e637947756172643a207265656e7472616e742063616c6c006000830152602082019050919050565b613a12816140d5565b82525050565b6000613a2482846130a1565b60148201915081905092915050565b6000613a3f82856130d6565b602082019150613a4f82846130d6565b6020820191508190509392505050565b6000613a6b8285613190565b9150613a77828461315f565b9150613a82826137d7565b91508190509392505050565b6000602082019050613aa36000830184613092565b92915050565b6000608082019050613abe6000830187613092565b613acb6020830186613092565b613ad86040830185613a09565b8181036060830152613aea81846130ed565b905095945050505050565b6000604082019050613b0a6000830185613092565b613b176020830184613a09565b9392505050565b6000602082019050613b3360008301846130b8565b92915050565b6000602082019050613b4e60008301846130c7565b92915050565b60006020820190508181036000830152613b6e8184613126565b905092915050565b60006020820190508181036000830152613b8f8161320f565b9050919050565b60006020820190508181036000830152613baf81613275565b9050919050565b60006020820190508181036000830152613bcf816132db565b9050919050565b60006020820190508181036000830152613bef8161331b565b9050919050565b60006020820190508181036000830152613c0f81613381565b9050919050565b60006020820190508181036000830152613c2f816133c1565b9050919050565b60006020820190508181036000830152613c4f81613427565b9050919050565b60006020820190508181036000830152613c6f8161348d565b9050919050565b60006020820190508181036000830152613c8f816134cd565b9050919050565b60006020820190508181036000830152613caf81613533565b9050919050565b60006020820190508181036000830152613ccf81613599565b9050919050565b60006020820190508181036000830152613cef816135ff565b9050919050565b60006020820190508181036000830152613d0f81613665565b9050919050565b60006020820190508181036000830152613d2f816136cb565b9050919050565b60006020820190508181036000830152613d4f8161370b565b9050919050565b60006020820190508181036000830152613d6f81613771565b9050919050565b60006020820190508181036000830152613d8f81613817565b9050919050565b60006020820190508181036000830152613daf81613857565b9050919050565b60006020820190508181036000830152613dcf816138bd565b9050919050565b60006020820190508181036000830152613def81613923565b9050919050565b60006020820190508181036000830152613e0f81613989565b9050919050565b60006020820190508181036000830152613e2f816139c9565b9050919050565b6000602082019050613e4b6000830184613a09565b92915050565b6000604051905081810181811067ffffffffffffffff82111715613e7857613e77614288565b5b8060405250919050565b600067ffffffffffffffff821115613e9d57613e9c614288565b5b601f19601f8301169050602081019050919050565b600067ffffffffffffffff821115613ecd57613ecc614288565b5b601f19601f8301169050602081019050919050565b60008190508160005260206000209050919050565b600081519050919050565b600081519050919050565b600082825260208201905092915050565b600082825260208201905092915050565b600081905092915050565b6000613f45826140d5565b9150613f50836140d5565b9250827fffffffffffffffffffffffffffffffffffffffffffffffffffffffffffffffff03821115613f8557613f846141fb565b5b828201905092915050565b6000613f9b826140d5565b9150613fa6836140d5565b925082613fb657613fb561422a565b5b828204905092915050565b6000613fcc826140d5565b9150613fd7836140d5565b9250817fffffffffffffffffffffffffffffffffffffffffffffffffffffffffffffffff04831182151516156140105761400f6141fb565b5b828202905092915050565b6000614026826140d5565b9150614031836140d5565b925082821015614044576140436141fb565b5b828203905092915050565b600061405a826140b5565b9050919050565b60008115159050919050565b6000819050919050565b60007fffffffff0000000000000000000000000000000000000000000000000000000082169050919050565b60006140ae8261404f565b9050919050565b600073ffffffffffffffffffffffffffffffffffffffff82169050919050565b6000819050919050565b82818337600083830152505050565b60005b8381101561410c5780820151818401526020810190506140f1565b8381111561411b576000848401525b50505050565b6000600282049050600182168061413957607f821691505b6020821081141561414d5761414c614259565b5b50919050565b600061415e826140d5565b91507fffffffffffffffffffffffffffffffffffffffffffffffffffffffffffffffff821415614191576141906141fb565b5b600182019050919050565b60006141a7826141b8565b9050919050565b6000819050919050565b60006141c3826142c8565b9050919050565b60006141d5826140d5565b91506141e0836140d5565b9250826141f0576141ef61422a565b5b828206905092915050565b7f4e487b7100000000000000000000000000000000000000000000000000000000600052601160045260246000fd5b7f4e487b7100000000000000000000000000000000000000000000000000000000600052601260045260246000fd5b7f4e487b7100000000000000000000000000000000000000000000000000000000600052602260045260246000fd5b7f4e487b7100000000000000000000000000000000000000000000000000000000600052604160045260246000fd5b6000601f19601f8301169050919050565b60008160601b9050919050565b6142de8161404f565b81146142e957600080fd5b50565b6142f581614061565b811461430057600080fd5b50565b61430c8161406d565b811461431757600080fd5b50565b61432381614077565b811461432e57600080fd5b50565b61433a816140a3565b811461434557600080fd5b50565b614351816140d5565b811461435c57600080fd5b5056fea2646970667358221220fec6ee590fd6c97ca9d03fbccce573a8a0f4119ea35eb508aeec5284c3ac504964736f6c63430008000033",
  "linkReferences": {},
  "deployedLinkReferences": {}
}