{
  "_format": "hh-sol-artifact-1",
  "contractName": "SampleNFT",
  "sourceName": "contracts/SampleNFT.sol",
  "abi": [
    {
      "inputs": [
        {
          "internalType": "string",
          "name": "_baseURI",
          "type": "string"
        },
        {
          "internalType": "string",
          "name": "collectionURI",
          "type": "string"
        }
      ],
      "stateMutability": "nonpayable",
      "type": "constructor"
    },
    {
      "anonymous": false,
      "inputs": [
        {
          "indexed": true,
          "internalType": "address",
          "name": "owner",
          "type": "address"
        },
        {
          "indexed": true,
          "internalType": "address",
          "name": "approved",
          "type": "address"
        },
        {
          "indexed": true,
          "internalType": "uint256",
          "name": "tokenId",
          "type": "uint256"
        }
      ],
      "name": "Approval",
      "type": "event"
    },
    {
      "anonymous": false,
      "inputs": [
        {
          "indexed": true,
          "internalType": "address",
          "name": "owner",
          "type": "address"
        },
        {
          "indexed": true,
          "internalType": "address",
          "name": "operator",
          "type": "address"
        },
        {
          "indexed": false,
          "internalType": "bool",
          "name": "approved",
          "type": "bool"
        }
      ],
      "name": "ApprovalForAll",
      "type": "event"
    },
    {
      "anonymous": false,
      "inputs": [
        {
          "indexed": true,
          "internalType": "address",
          "name": "previousOwner",
          "type": "address"
        },
        {
          "indexed": true,
          "internalType": "address",
          "name": "newOwner",
          "type": "address"
        }
      ],
      "name": "OwnershipTransferred",
      "type": "event"
    },
    {
      "anonymous": false,
      "inputs": [
        {
          "indexed": true,
          "internalType": "address",
          "name": "from",
          "type": "address"
        },
        {
          "indexed": true,
          "internalType": "address",
          "name": "to",
          "type": "address"
        },
        {
          "indexed": true,
          "internalType": "uint256",
          "name": "tokenId",
          "type": "uint256"
        }
      ],
      "name": "Transfer",
      "type": "event"
    },
    {
      "inputs": [],
      "name": "PUBLIC_SALE_PRICE",
      "outputs": [
        {
          "internalType": "uint256",
          "name": "",
          "type": "uint256"
        }
      ],
      "stateMutability": "view",
      "type": "function"
    },
    {
      "inputs": [],
      "name": "WHITELIST_SALE_PRICE",
      "outputs": [
        {
          "internalType": "uint256",
          "name": "",
          "type": "uint256"
        }
      ],
      "stateMutability": "view",
      "type": "function"
    },
    {
      "inputs": [
        {
          "internalType": "address",
          "name": "to",
          "type": "address"
        },
        {
          "internalType": "uint256",
          "name": "tokenId",
          "type": "uint256"
        }
      ],
      "name": "approve",
      "outputs": [],
      "stateMutability": "nonpayable",
      "type": "function"
    },
    {
      "inputs": [
        {
          "internalType": "address",
          "name": "owner",
          "type": "address"
        }
      ],
      "name": "balanceOf",
      "outputs": [
        {
          "internalType": "uint256",
          "name": "",
          "type": "uint256"
        }
      ],
      "stateMutability": "view",
      "type": "function"
    },
    {
      "inputs": [],
      "name": "baseURI",
      "outputs": [
        {
          "internalType": "string",
          "name": "",
          "type": "string"
        }
      ],
      "stateMutability": "view",
      "type": "function"
    },
    {
      "inputs": [
        {
          "internalType": "address",
          "name": "",
          "type": "address"
        }
      ],
      "name": "claimed",
      "outputs": [
        {
          "internalType": "bool",
          "name": "",
          "type": "bool"
        }
      ],
      "stateMutability": "view",
      "type": "function"
    },
    {
      "inputs": [],
      "name": "contractURI",
      "outputs": [
        {
          "internalType": "string",
          "name": "",
          "type": "string"
        }
      ],
      "stateMutability": "view",
      "type": "function"
    },
    {
      "inputs": [
        {
          "internalType": "uint256",
          "name": "tokenId",
          "type": "uint256"
        }
      ],
      "name": "getApproved",
      "outputs": [
        {
          "internalType": "address",
          "name": "",
          "type": "address"
        }
      ],
      "stateMutability": "view",
      "type": "function"
    },
    {
      "inputs": [],
      "name": "giftMerkleRoot",
      "outputs": [
        {
          "internalType": "bytes32",
          "name": "",
          "type": "bytes32"
        }
      ],
      "stateMutability": "view",
      "type": "function"
    },
    {
      "inputs": [],
      "name": "giftMintId",
      "outputs": [
        {
          "internalType": "uint256",
          "name": "",
          "type": "uint256"
        }
      ],
      "stateMutability": "view",
      "type": "function"
    },
    {
      "inputs": [
        {
          "internalType": "address",
          "name": "owner",
          "type": "address"
        },
        {
          "internalType": "address",
          "name": "operator",
          "type": "address"
        }
      ],
      "name": "isApprovedForAll",
      "outputs": [
        {
          "internalType": "bool",
          "name": "",
          "type": "bool"
        }
      ],
      "stateMutability": "view",
      "type": "function"
    },
    {
      "inputs": [],
      "name": "maxGiftMintId",
      "outputs": [
        {
          "internalType": "uint256",
          "name": "",
          "type": "uint256"
        }
      ],
      "stateMutability": "view",
      "type": "function"
    },
    {
      "inputs": [],
      "name": "maxPublicMint",
      "outputs": [
        {
          "internalType": "uint256",
          "name": "",
          "type": "uint256"
        }
      ],
      "stateMutability": "view",
      "type": "function"
    },
    {
      "inputs": [],
      "name": "maxWhitelistId",
      "outputs": [
        {
          "internalType": "uint256",
          "name": "",
          "type": "uint256"
        }
      ],
      "stateMutability": "view",
      "type": "function"
    },
    {
      "inputs": [
        {
          "internalType": "bytes32[]",
          "name": "merkleProof",
          "type": "bytes32[]"
        }
      ],
      "name": "mintGift",
      "outputs": [],
      "stateMutability": "nonpayable",
      "type": "function"
    },
    {
      "inputs": [
        {
          "internalType": "bytes32[]",
          "name": "merkleProof",
          "type": "bytes32[]"
        }
      ],
      "name": "mintWhitelist",
      "outputs": [],
      "stateMutability": "payable",
      "type": "function"
    },
    {
      "inputs": [],
      "name": "name",
      "outputs": [
        {
          "internalType": "string",
          "name": "",
          "type": "string"
        }
      ],
      "stateMutability": "view",
      "type": "function"
    },
    {
      "inputs": [],
      "name": "owner",
      "outputs": [
        {
          "internalType": "address",
          "name": "",
          "type": "address"
        }
      ],
      "stateMutability": "view",
      "type": "function"
    },
    {
      "inputs": [
        {
          "internalType": "uint256",
          "name": "tokenId",
          "type": "uint256"
        }
      ],
      "name": "ownerOf",
      "outputs": [
        {
          "internalType": "address",
          "name": "",
          "type": "address"
        }
      ],
      "stateMutability": "view",
      "type": "function"
    },
    {
      "inputs": [
        {
          "internalType": "uint256",
          "name": "numberOfTokens",
          "type": "uint256"
        }
      ],
      "name": "publicMint",
      "outputs": [],
      "stateMutability": "payable",
      "type": "function"
    },
    {
      "inputs": [],
      "name": "publicMintId",
      "outputs": [
        {
          "internalType": "uint256",
          "name": "",
          "type": "uint256"
        }
      ],
      "stateMutability": "view",
      "type": "function"
    },
    {
      "inputs": [],
      "name": "renounceOwnership",
      "outputs": [],
      "stateMutability": "nonpayable",
      "type": "function"
    },
    {
      "inputs": [
        {
          "internalType": "address",
          "name": "from",
          "type": "address"
        },
        {
          "internalType": "address",
          "name": "to",
          "type": "address"
        },
        {
          "internalType": "uint256",
          "name": "tokenId",
          "type": "uint256"
        }
      ],
      "name": "safeTransferFrom",
      "outputs": [],
      "stateMutability": "nonpayable",
      "type": "function"
    },
    {
      "inputs": [
        {
          "internalType": "address",
          "name": "from",
          "type": "address"
        },
        {
          "internalType": "address",
          "name": "to",
          "type": "address"
        },
        {
          "internalType": "uint256",
          "name": "tokenId",
          "type": "uint256"
        },
        {
          "internalType": "bytes",
          "name": "_data",
          "type": "bytes"
        }
      ],
      "name": "safeTransferFrom",
      "outputs": [],
      "stateMutability": "nonpayable",
      "type": "function"
    },
    {
      "inputs": [
        {
          "internalType": "address",
          "name": "operator",
          "type": "address"
        },
        {
          "internalType": "bool",
          "name": "approved",
          "type": "bool"
        }
      ],
      "name": "setApprovalForAll",
      "outputs": [],
      "stateMutability": "nonpayable",
      "type": "function"
    },
    {
      "inputs": [
        {
          "internalType": "string",
          "name": "_baseURI",
          "type": "string"
        }
      ],
      "name": "setBaseURI",
      "outputs": [],
      "stateMutability": "nonpayable",
      "type": "function"
    },
    {
      "inputs": [
        {
          "internalType": "bytes32",
          "name": "merkleRoot",
          "type": "bytes32"
        }
      ],
      "name": "setGiftMerkleRoot",
      "outputs": [],
      "stateMutability": "nonpayable",
      "type": "function"
    },
    {
      "inputs": [
        {
          "internalType": "bytes32",
          "name": "merkleRoot",
          "type": "bytes32"
        }
      ],
      "name": "setWhitelistMerkleRoot",
      "outputs": [],
      "stateMutability": "nonpayable",
      "type": "function"
    },
    {
      "inputs": [
        {
          "internalType": "bytes4",
          "name": "interfaceId",
          "type": "bytes4"
        }
      ],
      "name": "supportsInterface",
      "outputs": [
        {
          "internalType": "bool",
          "name": "",
          "type": "bool"
        }
      ],
      "stateMutability": "view",
      "type": "function"
    },
    {
      "inputs": [],
      "name": "symbol",
      "outputs": [
        {
          "internalType": "string",
          "name": "",
          "type": "string"
        }
      ],
      "stateMutability": "view",
      "type": "function"
    },
    {
      "inputs": [
        {
          "internalType": "uint256",
          "name": "tokenId",
          "type": "uint256"
        }
      ],
      "name": "tokenURI",
      "outputs": [
        {
          "internalType": "string",
          "name": "",
          "type": "string"
        }
      ],
      "stateMutability": "view",
      "type": "function"
    },
    {
      "inputs": [
        {
          "internalType": "address",
          "name": "from",
          "type": "address"
        },
        {
          "internalType": "address",
          "name": "to",
          "type": "address"
        },
        {
          "internalType": "uint256",
          "name": "tokenId",
          "type": "uint256"
        }
      ],
      "name": "transferFrom",
      "outputs": [],
      "stateMutability": "nonpayable",
      "type": "function"
    },
    {
      "inputs": [
        {
          "internalType": "address",
          "name": "newOwner",
          "type": "address"
        }
      ],
      "name": "transferOwnership",
      "outputs": [],
      "stateMutability": "nonpayable",
      "type": "function"
    },
    {
      "inputs": [],
      "name": "whitelistId",
      "outputs": [
        {
          "internalType": "uint256",
          "name": "",
          "type": "uint256"
        }
      ],
      "stateMutability": "view",
      "type": "function"
    },
    {
      "inputs": [],
      "name": "whitelistMerkleRoot",
      "outputs": [
        {
          "internalType": "bytes32",
          "name": "",
          "type": "bytes32"
        }
      ],
      "stateMutability": "view",
      "type": "function"
    },
    {
      "inputs": [],
      "name": "withdraw",
      "outputs": [],
      "stateMutability": "nonpayable",
      "type": "function"
    },
    {
      "inputs": [
        {
          "internalType": "contract IERC20",
          "name": "token",
          "type": "address"
        }
      ],
      "name": "withdrawTokens",
      "outputs": [],
      "stateMutability": "nonpayable",
      "type": "function"
    }
  ],
  "bytecode": "0x60e060405260196080908152506001600b556103e860a0908152506006600c5561177060c0908152506103e9600d553480156200003b57600080fd5b5060405162004aef38038062004aef8339818101604052810190620000619190620004c3565b6040518060400160405280600a81526020017f53616d706c65204e4654000000000000000000000000000000000000000000008152506040518060400160405280600381526020017f4e465400000000000000000000000000000000000000000000000000000000008152508160009080519060200190620000e5929190620003a1565b508060019080519060200190620000fe929190620003a1565b50505062000121620001156200015360201b60201c565b6200015b60201b60201c565b60016008819055506200013a826200022160201b60201c565b6200014b81620002cc60201b60201c565b5050620006dc565b600033905090565b6000600760009054906101000a900473ffffffffffffffffffffffffffffffffffffffff16905081600760006101000a81548173ffffffffffffffffffffffffffffffffffffffff021916908373ffffffffffffffffffffffffffffffffffffffff1602179055508173ffffffffffffffffffffffffffffffffffffffff168173ffffffffffffffffffffffffffffffffffffffff167f8be0079c531659141344cd1fd0a4f28419497f9722a3daafe3b4186f6b6457e060405160405180910390a35050565b620002316200015360201b60201c565b73ffffffffffffffffffffffffffffffffffffffff16620002576200037760201b60201c565b73ffffffffffffffffffffffffffffffffffffffff1614620002b0576040517f08c379a0000000000000000000000000000000000000000000000000000000008152600401620002a79062000578565b60405180910390fd5b80600a9080519060200190620002c8929190620003a1565b5050565b620002dc6200015360201b60201c565b73ffffffffffffffffffffffffffffffffffffffff16620003026200037760201b60201c565b73ffffffffffffffffffffffffffffffffffffffff16146200035b576040517f08c379a0000000000000000000000000000000000000000000000000000000008152600401620003529062000578565b60405180910390fd5b806009908051906020019062000373929190620003a1565b5050565b6000600760009054906101000a900473ffffffffffffffffffffffffffffffffffffffff16905090565b828054620003af9062000648565b90600052602060002090601f016020900481019282620003d357600085556200041f565b82601f10620003ee57805160ff19168380011785556200041f565b828001600101855582156200041f579182015b828111156200041e57825182559160200191906001019062000401565b5b5090506200042e919062000432565b5090565b5b808211156200044d57600081600090555060010162000433565b5090565b6000620004686200046284620005ce565b6200059a565b9050828152602081018484840111156200048157600080fd5b6200048e84828562000612565b509392505050565b600082601f830112620004a857600080fd5b8151620004ba84826020860162000451565b91505092915050565b60008060408385031215620004d757600080fd5b600083015167ffffffffffffffff811115620004f257600080fd5b620005008582860162000496565b925050602083015167ffffffffffffffff8111156200051e57600080fd5b6200052c8582860162000496565b9150509250929050565b60006200054560208362000601565b91507f4f776e61626c653a2063616c6c6572206973206e6f7420746865206f776e65726000830152602082019050919050565b60006020820190508181036000830152620005938162000536565b9050919050565b6000604051905081810181811067ffffffffffffffff82111715620005c457620005c3620006ad565b5b8060405250919050565b600067ffffffffffffffff821115620005ec57620005eb620006ad565b5b601f19601f8301169050602081019050919050565b600082825260208201905092915050565b60005b838110156200063257808201518184015260208101905062000615565b8381111562000642576000848401525b50505050565b600060028204905060018216806200066157607f821691505b602082108114156200067857620006776200067e565b5b50919050565b7f4e487b7100000000000000000000000000000000000000000000000000000000600052602260045260246000fd5b7f4e487b7100000000000000000000000000000000000000000000000000000000600052604160045260246000fd5b60805160a05160c0516143ce6200072160003960008181610c530152611b2101526000818161106d0152611b4501526000818161169d01526117c501526143ce6000f3fe60806040526004361061021a5760003560e01c8063715018a611610123578063bc912e1a116100ab578063d30068a41161006f578063d30068a414610791578063e68be24a146107bc578063e8a3d485146107e7578063e985e9c514610812578063f2fde38b1461084f5761021a565b8063bc912e1a14610698578063bd32fb66146106c3578063c87b56dd146106ec578063c884ef8314610729578063cabadaa0146107665761021a565b806395d89b41116100f257806395d89b41146105c5578063a19829c0146105f0578063a22cb4651461061b578063aa98e0c614610644578063b88d4fde1461066f5761021a565b8063715018a61461052f57806380e95ae114610546578063811dab35146105715780638da5cb5b1461059a5761021a565b80633ba46d46116101a657806349df728c1161017557806349df728c1461043857806355f804b3146104615780636352211e1461048a5780636c0360eb146104c757806370a08231146104f25761021a565b80633ba46d46146103b35780633ccfd60b146103dc57806342842e0e146103f357806344d843811461041c5761021a565b8063095ea7b3116101ed578063095ea7b3146102ef5780630fab61971461031857806323b872dd146103435780632db115441461036c57806330478b67146103885761021a565b806301ffc9a71461021f57806306fdde031461025c57806307e89ec014610287578063081812fc146102b2575b600080fd5b34801561022b57600080fd5b5061024660048036038101906102419190612fbd565b610878565b6040516102539190613b57565b60405180910390f35b34801561026857600080fd5b5061027161095a565b60405161027e9190613b8d565b60405180910390f35b34801561029357600080fd5b5061029c6109ec565b6040516102a99190613e6f565b60405180910390f35b3480156102be57600080fd5b506102d960048036038101906102d49190613079565b6109f7565b6040516102e69190613ac7565b60405180910390f35b3480156102fb57600080fd5b5061031660048036038101906103119190612eea565b610a7c565b005b34801561032457600080fd5b5061032d610b94565b60405161033a9190613e6f565b60405180910390f35b34801561034f57600080fd5b5061036a60048036038101906103659190612de4565b610b9a565b005b61038660048036038101906103819190613079565b610bfa565b005b34801561039457600080fd5b5061039d610d99565b6040516103aa9190613e6f565b60405180910390f35b3480156103bf57600080fd5b506103da60048036038101906103d59190612f94565b610d9f565b005b3480156103e857600080fd5b506103f1610e25565b005b3480156103ff57600080fd5b5061041a60048036038101906104159190612de4565b610ef0565b005b61043660048036038101906104319190612f26565b610f10565b005b34801561044457600080fd5b5061045f600480360381019061045a919061300f565b6111ea565b005b34801561046d57600080fd5b5061048860048036038101906104839190613038565b611385565b005b34801561049657600080fd5b506104b160048036038101906104ac9190613079565b61141b565b6040516104be9190613ac7565b60405180910390f35b3480156104d357600080fd5b506104dc6114cd565b6040516104e99190613b8d565b60405180910390f35b3480156104fe57600080fd5b5061051960048036038101906105149190612d7f565b61155b565b6040516105269190613e6f565b60405180910390f35b34801561053b57600080fd5b50610544611613565b005b34801561055257600080fd5b5061055b61169b565b6040516105689190613e6f565b60405180910390f35b34801561057d57600080fd5b5061059860048036038101906105939190612f26565b6116bf565b005b3480156105a657600080fd5b506105af6118b2565b6040516105bc9190613ac7565b60405180910390f35b3480156105d157600080fd5b506105da6118dc565b6040516105e79190613b8d565b60405180910390f35b3480156105fc57600080fd5b5061060561196e565b6040516106129190613b72565b60405180910390f35b34801561062757600080fd5b50610642600480360381019061063d9190612eae565b611974565b005b34801561065057600080fd5b5061065961198a565b6040516106669190613b72565b60405180910390f35b34801561067b57600080fd5b5061069660048036038101906106919190612e33565b611990565b005b3480156106a457600080fd5b506106ad6119f2565b6040516106ba9190613e6f565b60405180910390f35b3480156106cf57600080fd5b506106ea60048036038101906106e59190612f94565b6119fd565b005b3480156106f857600080fd5b50610713600480360381019061070e9190613079565b611a83565b6040516107209190613b8d565b60405180910390f35b34801561073557600080fd5b50610750600480360381019061074b9190612d7f565b611aff565b60405161075d9190613b57565b60405180910390f35b34801561077257600080fd5b5061077b611b1f565b6040516107889190613e6f565b60405180910390f35b34801561079d57600080fd5b506107a6611b43565b6040516107b39190613e6f565b60405180910390f35b3480156107c857600080fd5b506107d1611b67565b6040516107de9190613e6f565b60405180910390f35b3480156107f357600080fd5b506107fc611b6d565b6040516108099190613b8d565b60405180910390f35b34801561081e57600080fd5b5061083960048036038101906108349190612da8565b611bff565b6040516108469190613b57565b60405180910390f35b34801561085b57600080fd5b5061087660048036038101906108719190612d7f565b611c93565b005b60007f80ac58cd000000000000000000000000000000000000000000000000000000007bffffffffffffffffffffffffffffffffffffffffffffffffffffffff1916827bffffffffffffffffffffffffffffffffffffffffffffffffffffffff1916148061094357507f5b5e139f000000000000000000000000000000000000000000000000000000007bffffffffffffffffffffffffffffffffffffffffffffffffffffffff1916827bffffffffffffffffffffffffffffffffffffffffffffffffffffffff1916145b80610953575061095282611d8b565b5b9050919050565b6060600080546109699061415a565b80601f01602080910402602001604051908101604052809291908181526020018280546109959061415a565b80156109e25780601f106109b7576101008083540402835291602001916109e2565b820191906000526020600020905b8154815290600101906020018083116109c557829003601f168201915b5050505050905090565b66470de4df82000081565b6000610a0282611df5565b610a41576040517f08c379a0000000000000000000000000000000000000000000000000000000008152600401610a3890613d8f565b60405180910390fd5b6004600083815260200190815260200160002060009054906101000a900473ffffffffffffffffffffffffffffffffffffffff169050919050565b6000610a878261141b565b90508073ffffffffffffffffffffffffffffffffffffffff168373ffffffffffffffffffffffffffffffffffffffff161415610af8576040517f08c379a0000000000000000000000000000000000000000000000000000000008152600401610aef90613def565b60405180910390fd5b8073ffffffffffffffffffffffffffffffffffffffff16610b17611e61565b73ffffffffffffffffffffffffffffffffffffffff161480610b465750610b4581610b40611e61565b611bff565b5b610b85576040517f08c379a0000000000000000000000000000000000000000000000000000000008152600401610b7c90613cef565b60405180910390fd5b610b8f8383611e69565b505050565b600d5481565b610bab610ba5611e61565b82611f22565b610bea576040517f08c379a0000000000000000000000000000000000000000000000000000000008152600401610be190613e0f565b60405180910390fd5b610bf5838383612000565b505050565b66470de4df82000081348183610c109190613ffa565b14610c50576040517f08c379a0000000000000000000000000000000000000000000000000000000008152600401610c4790613e2f565b60405180910390fd5b827f000000000000000000000000000000000000000000000000000000000000000081600d54610c809190613f73565b1115610cc1576040517f08c379a0000000000000000000000000000000000000000000000000000000008152600401610cb890613c4f565b60405180910390fd5b60026008541415610d07576040517f08c379a0000000000000000000000000000000000000000000000000000000008152600401610cfe90613e4f565b60405180910390fd5b6002600881905550610d1b33600d5461225c565b600d6000815480929190610d2e9061418c565b91905055506001601060003373ffffffffffffffffffffffffffffffffffffffff1673ffffffffffffffffffffffffffffffffffffffff16815260200190815260200160002060006101000a81548160ff021916908315150217905550600160088190555050505050565b600b5481565b610da7611e61565b73ffffffffffffffffffffffffffffffffffffffff16610dc56118b2565b73ffffffffffffffffffffffffffffffffffffffff1614610e1b576040517f08c379a0000000000000000000000000000000000000000000000000000000008152600401610e1290613daf565b60405180910390fd5b80600e8190555050565b610e2d611e61565b73ffffffffffffffffffffffffffffffffffffffff16610e4b6118b2565b73ffffffffffffffffffffffffffffffffffffffff1614610ea1576040517f08c379a0000000000000000000000000000000000000000000000000000000008152600401610e9890613daf565b60405180910390fd5b60004790503373ffffffffffffffffffffffffffffffffffffffff166108fc829081150290604051600060405180830381858888f19350505050158015610eec573d6000803e3d6000fd5b5050565b610f0b83838360405180602001604052806000815250611990565b505050565b8181600f54610f87838380806020026020016040519081016040528093929190818152602001838360200280828437600081840152601f19601f820116905080830192505050505050508233604051602001610f6c9190613a51565b6040516020818303038152906040528051906020012061242a565b610fc6576040517f08c379a0000000000000000000000000000000000000000000000000000000008152600401610fbd90613c8f565b60405180910390fd5b662386f26fc100006001348183610fdd9190613ffa565b1461101d576040517f08c379a000000000000000000000000000000000000000000000000000000000815260040161101490613e2f565b60405180910390fd5b60026008541415611063576040517f08c379a000000000000000000000000000000000000000000000000000000000815260040161105a90613e4f565b60405180910390fd5b60026008819055507f0000000000000000000000000000000000000000000000000000000000000000600c5411156110d0576040517f08c379a00000000000000000000000000000000000000000000000000000000081526004016110c790613caf565b60405180910390fd5b601060003373ffffffffffffffffffffffffffffffffffffffff1673ffffffffffffffffffffffffffffffffffffffff16815260200190815260200160002060009054906101000a900460ff161561115d576040517f08c379a000000000000000000000000000000000000000000000000000000000815260040161115490613ccf565b60405180910390fd5b61116933600c5461225c565b600c600081548092919061117c9061418c565b91905055506001601060003373ffffffffffffffffffffffffffffffffffffffff1673ffffffffffffffffffffffffffffffffffffffff16815260200190815260200160002060006101000a81548160ff021916908315150217905550600160088190555050505050505050565b6111f2611e61565b73ffffffffffffffffffffffffffffffffffffffff166112106118b2565b73ffffffffffffffffffffffffffffffffffffffff1614611266576040517f08c379a000000000000000000000000000000000000000000000000000000000815260040161125d90613daf565b60405180910390fd5b60008173ffffffffffffffffffffffffffffffffffffffff166370a08231306040518263ffffffff1660e01b81526004016112a19190613ac7565b60206040518083038186803b1580156112b957600080fd5b505afa1580156112cd573d6000803e3d6000fd5b505050506040513d601f19601f820116820180604052508101906112f191906130a2565b90508173ffffffffffffffffffffffffffffffffffffffff1663a9059cbb33836040518363ffffffff1660e01b815260040161132e929190613b2e565b602060405180830381600087803b15801561134857600080fd5b505af115801561135c573d6000803e3d6000fd5b505050506040513d601f19601f820116820180604052508101906113809190612f6b565b505050565b61138d611e61565b73ffffffffffffffffffffffffffffffffffffffff166113ab6118b2565b73ffffffffffffffffffffffffffffffffffffffff1614611401576040517f08c379a00000000000000000000000000000000000000000000000000000000081526004016113f890613daf565b60405180910390fd5b80600a9080519060200190611417929190612b05565b5050565b6000806002600084815260200190815260200160002060009054906101000a900473ffffffffffffffffffffffffffffffffffffffff169050600073ffffffffffffffffffffffffffffffffffffffff168173ffffffffffffffffffffffffffffffffffffffff1614156114c4576040517f08c379a00000000000000000000000000000000000000000000000000000000081526004016114bb90613d2f565b60405180910390fd5b80915050919050565b600a80546114da9061415a565b80601f01602080910402602001604051908101604052809291908181526020018280546115069061415a565b80156115535780601f1061152857610100808354040283529160200191611553565b820191906000526020600020905b81548152906001019060200180831161153657829003601f168201915b505050505081565b60008073ffffffffffffffffffffffffffffffffffffffff168273ffffffffffffffffffffffffffffffffffffffff1614156115cc576040517f08c379a00000000000000000000000000000000000000000000000000000000081526004016115c390613d0f565b60405180910390fd5b600360008373ffffffffffffffffffffffffffffffffffffffff1673ffffffffffffffffffffffffffffffffffffffff168152602001908152602001600020549050919050565b61161b611e61565b73ffffffffffffffffffffffffffffffffffffffff166116396118b2565b73ffffffffffffffffffffffffffffffffffffffff161461168f576040517f08c379a000000000000000000000000000000000000000000000000000000000815260040161168690613daf565b60405180910390fd5b6116996000612441565b565b7f000000000000000000000000000000000000000000000000000000000000000081565b8181600e54611736838380806020026020016040519081016040528093929190818152602001838360200280828437600081840152601f19601f82011690508083019250505050505050823360405160200161171b9190613a51565b6040516020818303038152906040528051906020012061242a565b611775576040517f08c379a000000000000000000000000000000000000000000000000000000000815260040161176c90613c8f565b60405180910390fd5b600260085414156117bb576040517f08c379a00000000000000000000000000000000000000000000000000000000081526004016117b290613e4f565b60405180910390fd5b60026008819055507f0000000000000000000000000000000000000000000000000000000000000000600b5411156117f257600080fd5b601060003373ffffffffffffffffffffffffffffffffffffffff1673ffffffffffffffffffffffffffffffffffffffff16815260200190815260200160002060009054906101000a900460ff161561187f576040517f08c379a000000000000000000000000000000000000000000000000000000000815260040161187690613ccf565b60405180910390fd5b61188b33600b5461225c565b600b600081548092919061189e9061418c565b919050555060016008819055505050505050565b6000600760009054906101000a900473ffffffffffffffffffffffffffffffffffffffff16905090565b6060600180546118eb9061415a565b80601f01602080910402602001604051908101604052809291908181526020018280546119179061415a565b80156119645780601f1061193957610100808354040283529160200191611964565b820191906000526020600020905b81548152906001019060200180831161194757829003601f168201915b5050505050905090565b600e5481565b61198661197f611e61565b8383612507565b5050565b600f5481565b6119a161199b611e61565b83611f22565b6119e0576040517f08c379a00000000000000000000000000000000000000000000000000000000081526004016119d790613e0f565b60405180910390fd5b6119ec84848484612674565b50505050565b662386f26fc1000081565b611a05611e61565b73ffffffffffffffffffffffffffffffffffffffff16611a236118b2565b73ffffffffffffffffffffffffffffffffffffffff1614611a79576040517f08c379a0000000000000000000000000000000000000000000000000000000008152600401611a7090613daf565b60405180910390fd5b80600f8190555050565b6060611a8e82611df5565b611acd576040517f08c379a0000000000000000000000000000000000000000000000000000000008152600401611ac490613d6f565b60405180910390fd5b600a611ad8836126d0565b604051602001611ae9929190613a98565b6040516020818303038152906040529050919050565b60106020528060005260406000206000915054906101000a900460ff1681565b7f000000000000000000000000000000000000000000000000000000000000000081565b7f000000000000000000000000000000000000000000000000000000000000000081565b600c5481565b606060098054611b7c9061415a565b80601f0160208091040260200160405190810160405280929190818152602001828054611ba89061415a565b8015611bf55780601f10611bca57610100808354040283529160200191611bf5565b820191906000526020600020905b815481529060010190602001808311611bd857829003601f168201915b5050505050905090565b6000600560008473ffffffffffffffffffffffffffffffffffffffff1673ffffffffffffffffffffffffffffffffffffffff16815260200190815260200160002060008373ffffffffffffffffffffffffffffffffffffffff1673ffffffffffffffffffffffffffffffffffffffff16815260200190815260200160002060009054906101000a900460ff16905092915050565b611c9b611e61565b73ffffffffffffffffffffffffffffffffffffffff16611cb96118b2565b73ffffffffffffffffffffffffffffffffffffffff1614611d0f576040517f08c379a0000000000000000000000000000000000000000000000000000000008152600401611d0690613daf565b60405180910390fd5b600073ffffffffffffffffffffffffffffffffffffffff168173ffffffffffffffffffffffffffffffffffffffff161415611d7f576040517f08c379a0000000000000000000000000000000000000000000000000000000008152600401611d7690613bcf565b60405180910390fd5b611d8881612441565b50565b60007f01ffc9a7000000000000000000000000000000000000000000000000000000007bffffffffffffffffffffffffffffffffffffffffffffffffffffffff1916827bffffffffffffffffffffffffffffffffffffffffffffffffffffffff1916149050919050565b60008073ffffffffffffffffffffffffffffffffffffffff166002600084815260200190815260200160002060009054906101000a900473ffffffffffffffffffffffffffffffffffffffff1673ffffffffffffffffffffffffffffffffffffffff1614159050919050565b600033905090565b816004600083815260200190815260200160002060006101000a81548173ffffffffffffffffffffffffffffffffffffffff021916908373ffffffffffffffffffffffffffffffffffffffff160217905550808273ffffffffffffffffffffffffffffffffffffffff16611edc8361141b565b73ffffffffffffffffffffffffffffffffffffffff167f8c5be1e5ebec7d5bd14f71427d1e84f3dd0314c0f7b2291e5b200ac8c7c3b92560405160405180910390a45050565b6000611f2d82611df5565b611f6c576040517f08c379a0000000000000000000000000000000000000000000000000000000008152600401611f6390613c6f565b60405180910390fd5b6000611f778361141b565b90508073ffffffffffffffffffffffffffffffffffffffff168473ffffffffffffffffffffffffffffffffffffffff161480611fe657508373ffffffffffffffffffffffffffffffffffffffff16611fce846109f7565b73ffffffffffffffffffffffffffffffffffffffff16145b80611ff75750611ff68185611bff565b5b91505092915050565b8273ffffffffffffffffffffffffffffffffffffffff166120208261141b565b73ffffffffffffffffffffffffffffffffffffffff1614612076576040517f08c379a000000000000000000000000000000000000000000000000000000000815260040161206d90613dcf565b60405180910390fd5b600073ffffffffffffffffffffffffffffffffffffffff168273ffffffffffffffffffffffffffffffffffffffff1614156120e6576040517f08c379a00000000000000000000000000000000000000000000000000000000081526004016120dd90613c0f565b60405180910390fd5b6120f183838361287d565b6120fc600082611e69565b6001600360008573ffffffffffffffffffffffffffffffffffffffff1673ffffffffffffffffffffffffffffffffffffffff168152602001908152602001600020600082825461214c9190614054565b925050819055506001600360008473ffffffffffffffffffffffffffffffffffffffff1673ffffffffffffffffffffffffffffffffffffffff16815260200190815260200160002060008282546121a39190613f73565b92505081905550816002600083815260200190815260200160002060006101000a81548173ffffffffffffffffffffffffffffffffffffffff021916908373ffffffffffffffffffffffffffffffffffffffff160217905550808273ffffffffffffffffffffffffffffffffffffffff168473ffffffffffffffffffffffffffffffffffffffff167fddf252ad1be2c89b69c2b068fc378daa952ba7f163c4a11628f55a4df523b3ef60405160405180910390a4505050565b600073ffffffffffffffffffffffffffffffffffffffff168273ffffffffffffffffffffffffffffffffffffffff1614156122cc576040517f08c379a00000000000000000000000000000000000000000000000000000000081526004016122c390613d4f565b60405180910390fd5b6122d581611df5565b15612315576040517f08c379a000000000000000000000000000000000000000000000000000000000815260040161230c90613bef565b60405180910390fd5b6123216000838361287d565b6001600360008473ffffffffffffffffffffffffffffffffffffffff1673ffffffffffffffffffffffffffffffffffffffff16815260200190815260200160002060008282546123719190613f73565b92505081905550816002600083815260200190815260200160002060006101000a81548173ffffffffffffffffffffffffffffffffffffffff021916908373ffffffffffffffffffffffffffffffffffffffff160217905550808273ffffffffffffffffffffffffffffffffffffffff16600073ffffffffffffffffffffffffffffffffffffffff167fddf252ad1be2c89b69c2b068fc378daa952ba7f163c4a11628f55a4df523b3ef60405160405180910390a45050565b6000826124378584612882565b1490509392505050565b6000600760009054906101000a900473ffffffffffffffffffffffffffffffffffffffff16905081600760006101000a81548173ffffffffffffffffffffffffffffffffffffffff021916908373ffffffffffffffffffffffffffffffffffffffff1602179055508173ffffffffffffffffffffffffffffffffffffffff168173ffffffffffffffffffffffffffffffffffffffff167f8be0079c531659141344cd1fd0a4f28419497f9722a3daafe3b4186f6b6457e060405160405180910390a35050565b8173ffffffffffffffffffffffffffffffffffffffff168373ffffffffffffffffffffffffffffffffffffffff161415612576576040517f08c379a000000000000000000000000000000000000000000000000000000000815260040161256d90613c2f565b60405180910390fd5b80600560008573ffffffffffffffffffffffffffffffffffffffff1673ffffffffffffffffffffffffffffffffffffffff16815260200190815260200160002060008473ffffffffffffffffffffffffffffffffffffffff1673ffffffffffffffffffffffffffffffffffffffff16815260200190815260200160002060006101000a81548160ff0219169083151502179055508173ffffffffffffffffffffffffffffffffffffffff168373ffffffffffffffffffffffffffffffffffffffff167f17307eab39ab6107e8899845ad3d59bd9653f200f220920489ca2b5937696c31836040516126679190613b57565b60405180910390a3505050565b61267f848484612000565b61268b8484848461295b565b6126ca576040517f08c379a00000000000000000000000000000000000000000000000000000000081526004016126c190613baf565b60405180910390fd5b50505050565b60606000821415612718576040518060400160405280600181526020017f30000000000000000000000000000000000000000000000000000000000000008152509050612878565b600082905060005b6000821461274a5780806127339061418c565b915050600a826127439190613fc9565b9150612720565b60008167ffffffffffffffff81111561278c577f4e487b7100000000000000000000000000000000000000000000000000000000600052604160045260246000fd5b6040519080825280601f01601f1916602001820160405280156127be5781602001600182028036833780820191505090505b5090505b60008514612871576001826127d79190614054565b9150600a856127e69190614203565b60306127f29190613f73565b60f81b81838151811061282e577f4e487b7100000000000000000000000000000000000000000000000000000000600052603260045260246000fd5b60200101907effffffffffffffffffffffffffffffffffffffffffffffffffffffffffffff1916908160001a905350600a8561286a9190613fc9565b94506127c2565b8093505050505b919050565b505050565b60008082905060005b84518110156129505760008582815181106128cf577f4e487b7100000000000000000000000000000000000000000000000000000000600052603260045260246000fd5b602002602001015190508083116129105782816040516020016128f3929190613a6c565b60405160208183030381529060405280519060200120925061293c565b8083604051602001612923929190613a6c565b6040516020818303038152906040528051906020012092505b5080806129489061418c565b91505061288b565b508091505092915050565b600061297c8473ffffffffffffffffffffffffffffffffffffffff16612af2565b15612ae5578373ffffffffffffffffffffffffffffffffffffffff1663150b7a026129a5611e61565b8786866040518563ffffffff1660e01b81526004016129c79493929190613ae2565b602060405180830381600087803b1580156129e157600080fd5b505af1925050508015612a1257506040513d601f19601f82011682018060405250810190612a0f9190612fe6565b60015b612a95573d8060008114612a42576040519150601f19603f3d011682016040523d82523d6000602084013e612a47565b606091505b50600081511415612a8d576040517f08c379a0000000000000000000000000000000000000000000000000000000008152600401612a8490613baf565b60405180910390fd5b805181602001fd5b63150b7a0260e01b7bffffffffffffffffffffffffffffffffffffffffffffffffffffffff1916817bffffffffffffffffffffffffffffffffffffffffffffffffffffffff191614915050612aea565b600190505b949350505050565b600080823b905060008111915050919050565b828054612b119061415a565b90600052602060002090601f016020900481019282612b335760008555612b7a565b82601f10612b4c57805160ff1916838001178555612b7a565b82800160010185558215612b7a579182015b82811115612b79578251825591602001919060010190612b5e565b5b509050612b879190612b8b565b5090565b5b80821115612ba4576000816000905550600101612b8c565b5090565b6000612bbb612bb684613ebb565b613e8a565b905082815260208101848484011115612bd357600080fd5b612bde848285614118565b509392505050565b6000612bf9612bf484613eeb565b613e8a565b905082815260208101848484011115612c1157600080fd5b612c1c848285614118565b509392505050565b600081359050612c338161430e565b92915050565b60008083601f840112612c4b57600080fd5b8235905067ffffffffffffffff811115612c6457600080fd5b602083019150836020820283011115612c7c57600080fd5b9250929050565b600081359050612c9281614325565b92915050565b600081519050612ca781614325565b92915050565b600081359050612cbc8161433c565b92915050565b600081359050612cd181614353565b92915050565b600081519050612ce681614353565b92915050565b600082601f830112612cfd57600080fd5b8135612d0d848260208601612ba8565b91505092915050565b600081359050612d258161436a565b92915050565b600082601f830112612d3c57600080fd5b8135612d4c848260208601612be6565b91505092915050565b600081359050612d6481614381565b92915050565b600081519050612d7981614381565b92915050565b600060208284031215612d9157600080fd5b6000612d9f84828501612c24565b91505092915050565b60008060408385031215612dbb57600080fd5b6000612dc985828601612c24565b9250506020612dda85828601612c24565b9150509250929050565b600080600060608486031215612df957600080fd5b6000612e0786828701612c24565b9350506020612e1886828701612c24565b9250506040612e2986828701612d55565b9150509250925092565b60008060008060808587031215612e4957600080fd5b6000612e5787828801612c24565b9450506020612e6887828801612c24565b9350506040612e7987828801612d55565b925050606085013567ffffffffffffffff811115612e9657600080fd5b612ea287828801612cec565b91505092959194509250565b60008060408385031215612ec157600080fd5b6000612ecf85828601612c24565b9250506020612ee085828601612c83565b9150509250929050565b60008060408385031215612efd57600080fd5b6000612f0b85828601612c24565b9250506020612f1c85828601612d55565b9150509250929050565b60008060208385031215612f3957600080fd5b600083013567ffffffffffffffff811115612f5357600080fd5b612f5f85828601612c39565b92509250509250929050565b600060208284031215612f7d57600080fd5b6000612f8b84828501612c98565b91505092915050565b600060208284031215612fa657600080fd5b6000612fb484828501612cad565b91505092915050565b600060208284031215612fcf57600080fd5b6000612fdd84828501612cc2565b91505092915050565b600060208284031215612ff857600080fd5b600061300684828501612cd7565b91505092915050565b60006020828403121561302157600080fd5b600061302f84828501612d16565b91505092915050565b60006020828403121561304a57600080fd5b600082013567ffffffffffffffff81111561306457600080fd5b61307084828501612d2b565b91505092915050565b60006020828403121561308b57600080fd5b600061309984828501612d55565b91505092915050565b6000602082840312156130b457600080fd5b60006130c284828501612d6a565b91505092915050565b6130d481614088565b82525050565b6130eb6130e682614088565b6141d5565b82525050565b6130fa8161409a565b82525050565b613109816140a6565b82525050565b61312061311b826140a6565b6141e7565b82525050565b600061313182613f30565b61313b8185613f46565b935061314b818560208601614127565b613154816142f0565b840191505092915050565b600061316a82613f3b565b6131748185613f57565b9350613184818560208601614127565b61318d816142f0565b840191505092915050565b60006131a382613f3b565b6131ad8185613f68565b93506131bd818560208601614127565b80840191505092915050565b600081546131d68161415a565b6131e08186613f68565b945060018216600081146131fb576001811461320c5761323f565b60ff1983168652818601935061323f565b61321585613f1b565b60005b8381101561323757815481890152600182019150602081019050613218565b838801955050505b50505092915050565b6000613255603283613f57565b91507f4552433732313a207472616e7366657220746f206e6f6e20455243373231526560008301527f63656976657220696d706c656d656e74657200000000000000000000000000006020830152604082019050919050565b60006132bb602683613f57565b91507f4f776e61626c653a206e6577206f776e657220697320746865207a65726f206160008301527f64647265737300000000000000000000000000000000000000000000000000006020830152604082019050919050565b6000613321601c83613f57565b91507f4552433732313a20746f6b656e20616c7265616479206d696e746564000000006000830152602082019050919050565b6000613361602483613f57565b91507f4552433732313a207472616e7366657220746f20746865207a65726f2061646460008301527f72657373000000000000000000000000000000000000000000000000000000006020830152604082019050919050565b60006133c7601983613f57565b91507f4552433732313a20617070726f766520746f2063616c6c6572000000000000006000830152602082019050919050565b6000613407602383613f57565b91507f4e6f7420656e6f75676820746f6b656e732072656d61696e696e6720746f206d60008301527f696e7400000000000000000000000000000000000000000000000000000000006020830152604082019050919050565b600061346d602c83613f57565b91507f4552433732313a206f70657261746f7220717565727920666f72206e6f6e657860008301527f697374656e7420746f6b656e00000000000000000000000000000000000000006020830152604082019050919050565b60006134d3601e83613f57565b91507f4164647265737320646f6573206e6f7420657869737420696e206c69737400006000830152602082019050919050565b6000613513602883613f57565b91507f6d696e74656420746865206d6178696d756d2023206f662077686974656c697360008301527f7420746f6b656e730000000000000000000000000000000000000000000000006020830152604082019050919050565b6000613579602583613f57565b91507f4e465420697320616c726561647920636c61696d65642062792074686973207760008301527f616c6c65740000000000000000000000000000000000000000000000000000006020830152604082019050919050565b60006135df603883613f57565b91507f4552433732313a20617070726f76652063616c6c6572206973206e6f74206f7760008301527f6e6572206e6f7220617070726f76656420666f7220616c6c00000000000000006020830152604082019050919050565b6000613645602a83613f57565b91507f4552433732313a2062616c616e636520717565727920666f7220746865207a6560008301527f726f2061646472657373000000000000000000000000000000000000000000006020830152604082019050919050565b60006136ab602983613f57565b91507f4552433732313a206f776e657220717565727920666f72206e6f6e657869737460008301527f656e7420746f6b656e00000000000000000000000000000000000000000000006020830152604082019050919050565b6000613711602083613f57565b91507f4552433732313a206d696e7420746f20746865207a65726f20616464726573736000830152602082019050919050565b6000613751602b83613f57565b91507f4552433732314d657461646174613a20717565727920666f72206e6f6e65786960008301527f7374656e7420746f6b656e0000000000000000000000000000000000000000006020830152604082019050919050565b60006137b7602c83613f57565b91507f4552433732313a20617070726f76656420717565727920666f72206e6f6e657860008301527f697374656e7420746f6b656e00000000000000000000000000000000000000006020830152604082019050919050565b600061381d600583613f68565b91507f2e6a736f6e0000000000000000000000000000000000000000000000000000006000830152600582019050919050565b600061385d602083613f57565b91507f4f776e61626c653a2063616c6c6572206973206e6f7420746865206f776e65726000830152602082019050919050565b600061389d602983613f57565b91507f4552433732313a207472616e73666572206f6620746f6b656e2074686174206960008301527f73206e6f74206f776e00000000000000000000000000000000000000000000006020830152604082019050919050565b6000613903602183613f57565b91507f4552433732313a20617070726f76616c20746f2063757272656e74206f776e6560008301527f72000000000000000000000000000000000000000000000000000000000000006020830152604082019050919050565b6000613969603183613f57565b91507f4552433732313a207472616e736665722063616c6c6572206973206e6f74206f60008301527f776e6572206e6f7220617070726f7665640000000000000000000000000000006020830152604082019050919050565b60006139cf601883613f57565b91507f496e636f7272656374204554482076616c75652073656e7400000000000000006000830152602082019050919050565b6000613a0f601f83613f57565b91507f5265656e7472616e637947756172643a207265656e7472616e742063616c6c006000830152602082019050919050565b613a4b8161410e565b82525050565b6000613a5d82846130da565b60148201915081905092915050565b6000613a78828561310f565b602082019150613a88828461310f565b6020820191508190509392505050565b6000613aa482856131c9565b9150613ab08284613198565b9150613abb82613810565b91508190509392505050565b6000602082019050613adc60008301846130cb565b92915050565b6000608082019050613af760008301876130cb565b613b0460208301866130cb565b613b116040830185613a42565b8181036060830152613b238184613126565b905095945050505050565b6000604082019050613b4360008301856130cb565b613b506020830184613a42565b9392505050565b6000602082019050613b6c60008301846130f1565b92915050565b6000602082019050613b876000830184613100565b92915050565b60006020820190508181036000830152613ba7818461315f565b905092915050565b60006020820190508181036000830152613bc881613248565b9050919050565b60006020820190508181036000830152613be8816132ae565b9050919050565b60006020820190508181036000830152613c0881613314565b9050919050565b60006020820190508181036000830152613c2881613354565b9050919050565b60006020820190508181036000830152613c48816133ba565b9050919050565b60006020820190508181036000830152613c68816133fa565b9050919050565b60006020820190508181036000830152613c8881613460565b9050919050565b60006020820190508181036000830152613ca8816134c6565b9050919050565b60006020820190508181036000830152613cc881613506565b9050919050565b60006020820190508181036000830152613ce88161356c565b9050919050565b60006020820190508181036000830152613d08816135d2565b9050919050565b60006020820190508181036000830152613d2881613638565b9050919050565b60006020820190508181036000830152613d488161369e565b9050919050565b60006020820190508181036000830152613d6881613704565b9050919050565b60006020820190508181036000830152613d8881613744565b9050919050565b60006020820190508181036000830152613da8816137aa565b9050919050565b60006020820190508181036000830152613dc881613850565b9050919050565b60006020820190508181036000830152613de881613890565b9050919050565b60006020820190508181036000830152613e08816138f6565b9050919050565b60006020820190508181036000830152613e288161395c565b9050919050565b60006020820190508181036000830152613e48816139c2565b9050919050565b60006020820190508181036000830152613e6881613a02565b9050919050565b6000602082019050613e846000830184613a42565b92915050565b6000604051905081810181811067ffffffffffffffff82111715613eb157613eb06142c1565b5b8060405250919050565b600067ffffffffffffffff821115613ed657613ed56142c1565b5b601f19601f8301169050602081019050919050565b600067ffffffffffffffff821115613f0657613f056142c1565b5b601f19601f8301169050602081019050919050565b60008190508160005260206000209050919050565b600081519050919050565b600081519050919050565b600082825260208201905092915050565b600082825260208201905092915050565b600081905092915050565b6000613f7e8261410e565b9150613f898361410e565b9250827fffffffffffffffffffffffffffffffffffffffffffffffffffffffffffffffff03821115613fbe57613fbd614234565b5b828201905092915050565b6000613fd48261410e565b9150613fdf8361410e565b925082613fef57613fee614263565b5b828204905092915050565b60006140058261410e565b91506140108361410e565b9250817fffffffffffffffffffffffffffffffffffffffffffffffffffffffffffffffff048311821515161561404957614048614234565b5b828202905092915050565b600061405f8261410e565b915061406a8361410e565b92508282101561407d5761407c614234565b5b828203905092915050565b6000614093826140ee565b9050919050565b60008115159050919050565b6000819050919050565b60007fffffffff0000000000000000000000000000000000000000000000000000000082169050919050565b60006140e782614088565b9050919050565b600073ffffffffffffffffffffffffffffffffffffffff82169050919050565b6000819050919050565b82818337600083830152505050565b60005b8381101561414557808201518184015260208101905061412a565b83811115614154576000848401525b50505050565b6000600282049050600182168061417257607f821691505b6020821081141561418657614185614292565b5b50919050565b60006141978261410e565b91507fffffffffffffffffffffffffffffffffffffffffffffffffffffffffffffffff8214156141ca576141c9614234565b5b600182019050919050565b60006141e0826141f1565b9050919050565b6000819050919050565b60006141fc82614301565b9050919050565b600061420e8261410e565b91506142198361410e565b92508261422957614228614263565b5b828206905092915050565b7f4e487b7100000000000000000000000000000000000000000000000000000000600052601160045260246000fd5b7f4e487b7100000000000000000000000000000000000000000000000000000000600052601260045260246000fd5b7f4e487b7100000000000000000000000000000000000000000000000000000000600052602260045260246000fd5b7f4e487b7100000000000000000000000000000000000000000000000000000000600052604160045260246000fd5b6000601f19601f8301169050919050565b60008160601b9050919050565b61431781614088565b811461432257600080fd5b50565b61432e8161409a565b811461433957600080fd5b50565b614345816140a6565b811461435057600080fd5b50565b61435c816140b0565b811461436757600080fd5b50565b614373816140dc565b811461437e57600080fd5b50565b61438a8161410e565b811461439557600080fd5b5056fea264697066735822122074fc31209e144af8dd186d91dd96f46a6e5a724380e50beb94d2ee978433a3f064736f6c63430008000033",
  "linkReferences": {},
  "deployedLinkReferences": {}
}